{
  "address": "0xe7f1725E7734CE288F8367e1Bb143E90bb3F0512",
  "_format": "hh-sol-artifact-1",
  "contractName": "CarMarketplace",
  "sourceName": "contracts/CarMarketplace.sol",
  "abi": [
    {
      "inputs": [
        {
          "internalType": "address",
          "name": "_carTokenAddress",
          "type": "address"
        }
      ],
      "stateMutability": "nonpayable",
      "type": "constructor"
    },
    {
      "inputs": [],
      "name": "ReentrancyGuardReentrantCall",
      "type": "error"
    },
    {
      "anonymous": false,
      "inputs": [
        {
          "indexed": true,
          "internalType": "uint256",
          "name": "tokenId",
          "type": "uint256"
        },
        {
          "indexed": true,
          "internalType": "address",
          "name": "seller",
          "type": "address"
        }
      ],
      "name": "CarCreated",
      "type": "event"
    },
    {
      "anonymous": false,
      "inputs": [
        {
          "indexed": true,
          "internalType": "uint256",
          "name": "tokenId",
          "type": "uint256"
        },
        {
          "indexed": true,
          "internalType": "address",
          "name": "seller",
          "type": "address"
        },
        {
          "indexed": false,
          "internalType": "uint256",
          "name": "price",
          "type": "uint256"
        }
      ],
      "name": "CarListed",
      "type": "event"
    },
    {
      "anonymous": false,
      "inputs": [
        {
          "indexed": true,
          "internalType": "uint256",
          "name": "tokenId",
          "type": "uint256"
        },
        {
          "indexed": false,
          "internalType": "uint256",
          "name": "price",
          "type": "uint256"
        }
      ],
      "name": "CarPriceUpdated",
      "type": "event"
    },
    {
      "anonymous": false,
      "inputs": [
        {
          "indexed": true,
          "internalType": "uint256",
          "name": "tokenId",
          "type": "uint256"
        },
        {
          "indexed": true,
          "internalType": "address",
          "name": "seller",
          "type": "address"
        },
        {
          "indexed": true,
          "internalType": "address",
          "name": "buyer",
          "type": "address"
        },
        {
          "indexed": false,
          "internalType": "uint256",
          "name": "price",
          "type": "uint256"
        }
      ],
      "name": "CarSold",
      "type": "event"
    },
    {
      "anonymous": false,
      "inputs": [
        {
          "indexed": true,
          "internalType": "uint256",
          "name": "tokenId",
          "type": "uint256"
        },
        {
          "indexed": false,
          "internalType": "string",
          "name": "uri",
          "type": "string"
        }
      ],
      "name": "CarURIUpdated",
      "type": "event"
    },
    {
      "anonymous": false,
      "inputs": [
        {
          "indexed": true,
          "internalType": "uint256",
          "name": "tokenId",
          "type": "uint256"
        },
        {
          "indexed": true,
          "internalType": "address",
          "name": "seller",
          "type": "address"
        }
      ],
      "name": "ListingCancelled",
      "type": "event"
    },
    {
      "stateMutability": "payable",
      "type": "fallback"
    },
    {
      "inputs": [
        {
          "internalType": "uint256",
          "name": "tokenId",
          "type": "uint256"
        }
      ],
      "name": "buyCar",
      "outputs": [],
      "stateMutability": "payable",
      "type": "function"
    },
    {
      "inputs": [
        {
          "internalType": "uint256",
          "name": "tokenId",
          "type": "uint256"
        }
      ],
      "name": "cancelListing",
      "outputs": [],
      "stateMutability": "nonpayable",
      "type": "function"
    },
    {
      "inputs": [],
      "name": "carToken",
      "outputs": [
        {
          "internalType": "contract CarToken",
          "name": "",
          "type": "address"
        }
      ],
      "stateMutability": "view",
      "type": "function"
    },
    {
      "inputs": [
        {
          "internalType": "string",
          "name": "uri",
          "type": "string"
        }
      ],
      "name": "createCar",
      "outputs": [],
      "stateMutability": "nonpayable",
      "type": "function"
    },
    {
      "inputs": [],
      "name": "decimals",
      "outputs": [
        {
          "internalType": "uint8",
          "name": "",
          "type": "uint8"
        }
      ],
      "stateMutability": "pure",
      "type": "function"
    },
    {
      "inputs": [],
      "name": "getAvailableListings",
      "outputs": [
        {
          "components": [
            {
              "internalType": "uint256",
              "name": "tokenId",
              "type": "uint256"
            },
            {
              "internalType": "address payable",
              "name": "seller",
              "type": "address"
            },
            {
              "internalType": "uint256",
              "name": "price",
              "type": "uint256"
            },
            {
              "internalType": "bool",
              "name": "isActive",
              "type": "bool"
            }
          ],
          "internalType": "struct CarMarketplace.Listing[]",
          "name": "",
          "type": "tuple[]"
        }
      ],
      "stateMutability": "view",
      "type": "function"
    },
    {
      "inputs": [
        {
          "internalType": "address",
          "name": "owner",
          "type": "address"
        }
      ],
      "name": "getCarsOwnedBy",
      "outputs": [
        {
          "internalType": "uint256[]",
          "name": "",
          "type": "uint256[]"
        }
      ],
      "stateMutability": "view",
      "type": "function"
    },
    {
      "inputs": [
        {
          "internalType": "uint256",
          "name": "tokenId",
          "type": "uint256"
        }
      ],
      "name": "getListing",
      "outputs": [
        {
          "components": [
            {
              "internalType": "uint256",
              "name": "tokenId",
              "type": "uint256"
            },
            {
              "internalType": "address payable",
              "name": "seller",
              "type": "address"
            },
            {
              "internalType": "uint256",
              "name": "price",
              "type": "uint256"
            },
            {
              "internalType": "bool",
              "name": "isActive",
              "type": "bool"
            }
          ],
          "internalType": "struct CarMarketplace.Listing",
          "name": "",
          "type": "tuple"
        }
      ],
      "stateMutability": "view",
      "type": "function"
    },
    {
      "inputs": [
        {
          "internalType": "uint256",
          "name": "tokenId",
          "type": "uint256"
        }
      ],
      "name": "isTokenListed",
      "outputs": [
        {
          "internalType": "bool",
          "name": "",
          "type": "bool"
        }
      ],
      "stateMutability": "view",
      "type": "function"
    },
    {
      "inputs": [
        {
          "internalType": "uint256",
          "name": "tokenId",
          "type": "uint256"
        },
        {
          "internalType": "uint256",
          "name": "price",
          "type": "uint256"
        }
      ],
      "name": "listCarForSale",
      "outputs": [],
      "stateMutability": "nonpayable",
      "type": "function"
    },
    {
      "inputs": [
        {
          "internalType": "uint256",
          "name": "",
          "type": "uint256"
        }
      ],
      "name": "listings",
      "outputs": [
        {
          "internalType": "uint256",
          "name": "tokenId",
          "type": "uint256"
        },
        {
          "internalType": "address payable",
          "name": "seller",
          "type": "address"
        },
        {
          "internalType": "uint256",
          "name": "price",
          "type": "uint256"
        },
        {
          "internalType": "bool",
          "name": "isActive",
          "type": "bool"
        }
      ],
      "stateMutability": "view",
      "type": "function"
    },
    {
      "inputs": [
        {
          "internalType": "bytes4",
          "name": "interfaceID",
          "type": "bytes4"
        }
      ],
      "name": "supportsInterface",
      "outputs": [
        {
          "internalType": "bool",
          "name": "",
          "type": "bool"
        }
      ],
      "stateMutability": "pure",
      "type": "function"
    },
    {
      "inputs": [
        {
          "internalType": "uint256",
          "name": "tokenId",
          "type": "uint256"
        },
        {
          "internalType": "uint256",
          "name": "price",
          "type": "uint256"
        }
      ],
      "name": "updateCarPrice",
      "outputs": [],
      "stateMutability": "nonpayable",
      "type": "function"
    },
    {
      "inputs": [
        {
          "internalType": "uint256",
          "name": "tokenId",
          "type": "uint256"
        },
        {
          "internalType": "string",
          "name": "uri",
          "type": "string"
        }
      ],
      "name": "updateCarURI",
      "outputs": [],
      "stateMutability": "nonpayable",
      "type": "function"
    },
    {
      "stateMutability": "payable",
      "type": "receive"
    },
    {
      "name": "estimateGas",
      "outputs": [
        {
          "internalType": "uint256",
          "name": "",
          "type": "uint256"
        }
      ],
      "stateMutability": "view",
      "type": "function"
    }
  ],
  "bytecode": "0x608060405234801561001057600080fd5b50604051611fbe380380611fbe83398101604081905261002f91610059565b6001600081905580546001600160a01b0319166001600160a01b0392909216919091179055610089565b60006020828403121561006b57600080fd5b81516001600160a01b038116811461008257600080fd5b9392505050565b611f26806100986000396000f3fe6080604052600436106100d55760003560e01c80636c23106011610079578063d530bf3311610056578063d530bf331461030f578063de74e57b14610361578063ede6fbf5146103f5578063f68883841461041557005b80636c231060146102a95780639b83cddc146102bc578063b1261ea8146102ef57005b8063313ce567116100b2578063313ce5671461021e578063477896271461023a5780635b4074401461025a57806368082c351461028757005b806301ffc9a7146100de578063107a274a14610155578063305a67a8146101fe57005b366100dc57005b005b3480156100ea57600080fd5b506101406100f9366004611a1b565b7fffffffff00000000000000000000000000000000000000000000000000000000167fda0d82f5000000000000000000000000000000000000000000000000000000001490565b60405190151581526020015b60405180910390f35b34801561016157600080fd5b506101f1610170366004611a64565b60408051608081018252600080825260208201819052918101829052606081019190915250600090815260026020818152604092839020835160808101855281548152600182015473ffffffffffffffffffffffffffffffffffffffff169281019290925291820154928101929092526003015460ff161515606082015290565b60405161014c9190611a7d565b34801561020a57600080fd5b506100dc610219366004611a64565b610435565b34801561022a57600080fd5b506040516012815260200161014c565b34801561024657600080fd5b506100dc610255366004611b9c565b610666565b34801561026657600080fd5b5061027a610275366004611c08565b61084c565b60405161014c9190611c25565b34801561029357600080fd5b5061029c610ac0565b60405161014c9190611c69565b6100dc6102b7366004611a64565b610d86565b3480156102c857600080fd5b506101406102d7366004611a64565b60009081526002602052604090206003015460ff1690565b3480156102fb57600080fd5b506100dc61030a366004611ce4565b611133565b34801561031b57600080fd5b5060015461033c9073ffffffffffffffffffffffffffffffffffffffff1681565b60405173ffffffffffffffffffffffffffffffffffffffff909116815260200161014c565b34801561036d57600080fd5b506103be61037c366004611a64565b60026020819052600091825260409091208054600182015492820154600390920154909273ffffffffffffffffffffffffffffffffffffffff16919060ff1684565b6040805194855273ffffffffffffffffffffffffffffffffffffffff9093166020850152918301521515606082015260800161014c565b34801561040157600080fd5b506100dc610410366004611d06565b6112fb565b34801561042157600080fd5b506100dc610430366004611ce4565b61150d565b6001546040517f6352211e000000000000000000000000000000000000000000000000000000008152600481018390528291339173ffffffffffffffffffffffffffffffffffffffff90911690636352211e90602401602060405180830381865afa1580156104a8573d6000803e3d6000fd5b505050506040513d601f19601f820116820180604052508101906104cc9190611d43565b73ffffffffffffffffffffffffffffffffffffffff16146105595760405162461bcd60e51b8152602060048201526024808201527f43616c6c6572206973206e6f7420746865206f776e6572206f6620746865207460448201527f6f6b656e0000000000000000000000000000000000000000000000000000000060648201526084015b60405180910390fd5b600082815260026020818152604092839020835160808101855281548152600182015473ffffffffffffffffffffffffffffffffffffffff169281019290925291820154928101929092526003015460ff161515606082018190526106005760405162461bcd60e51b815260206004820152601860248201527f5468697320636172206973206e6f7420666f722073616c6500000000000000006044820152606401610550565b60008381526002602052604080822060030180547fffffffffffffffffffffffffffffffffffffffffffffffffffffffffffffff0016905551339185917f8e25282255ab31897df2b0456bb993ac7f84d376861aefd84901d2d63a7428a29190a3505050565b6001546040517f6352211e000000000000000000000000000000000000000000000000000000008152600481018490528391339173ffffffffffffffffffffffffffffffffffffffff90911690636352211e90602401602060405180830381865afa1580156106d9573d6000803e3d6000fd5b505050506040513d601f19601f820116820180604052508101906106fd9190611d43565b73ffffffffffffffffffffffffffffffffffffffff16146107855760405162461bcd60e51b8152602060048201526024808201527f43616c6c6572206973206e6f7420746865206f776e6572206f6620746865207460448201527f6f6b656e000000000000000000000000000000000000000000000000000000006064820152608401610550565b6001546040517f162094c400000000000000000000000000000000000000000000000000000000815273ffffffffffffffffffffffffffffffffffffffff9091169063162094c4906107dd9086908690600401611dc4565b600060405180830381600087803b1580156107f757600080fd5b505af115801561080b573d6000803e3d6000fd5b50505050827fc5a2cca31029450031d3bd3bae967d9dc7ebd1cb4f9ea7bf26b13c6b8d1a28298360405161083f9190611ddd565b60405180910390a2505050565b60606000600160009054906101000a900473ffffffffffffffffffffffffffffffffffffffff1673ffffffffffffffffffffffffffffffffffffffff1663f08b82e66040518163ffffffff1660e01b8152600401602060405180830381865afa1580156108bd573d6000803e3d6000fd5b505050506040513d601f19601f820116820180604052508101906108e19190611df0565b905060008167ffffffffffffffff8111156108fe576108fe611ac2565b604051908082528060200260200182016040528015610927578160200160208202803683370190505b509050600060015b838111610a24576001546040517f6352211e0000000000000000000000000000000000000000000000000000000081526004810183905273ffffffffffffffffffffffffffffffffffffffff888116921690636352211e90602401602060405180830381865afa1580156109a7573d6000803e3d6000fd5b505050506040513d601f19601f820116820180604052508101906109cb9190611d43565b73ffffffffffffffffffffffffffffffffffffffff1603610a1257808383815181106109f9576109f9611e09565b602090810291909101015281610a0e81611e67565b9250505b80610a1c81611e67565b91505061092f565b5060008167ffffffffffffffff811115610a4057610a40611ac2565b604051908082528060200260200182016040528015610a69578160200160208202803683370190505b50905060005b82811015610ab657838181518110610a8957610a89611e09565b6020026020010151828281518110610aa357610aa3611e09565b6020908102919091010152600101610a6f565b5095945050505050565b60606000600160009054906101000a900473ffffffffffffffffffffffffffffffffffffffff1673ffffffffffffffffffffffffffffffffffffffff1663f08b82e66040518163ffffffff1660e01b8152600401602060405180830381865afa158015610b31573d6000803e3d6000fd5b505050506040513d601f19601f82011682018060405250810190610b559190611df0565b905060008167ffffffffffffffff811115610b7257610b72611ac2565b604051908082528060200260200182016040528015610be257816020015b6040805160808101825260008082526020808301829052928201819052606082015282527fffffffffffffffffffffffffffffffffffffffffffffffffffffffffffffffff909201910181610b905790505b509050600060015b838111610ca45760008181526002602052604090206003015460ff1615610c9257600081815260026020818152604092839020835160808101855281548152600182015473ffffffffffffffffffffffffffffffffffffffff169281019290925291820154928101929092526003015460ff16151560608201528351849084908110610c7857610c78611e09565b60200260200101819052508180610c8e90611e67565b9250505b80610c9c81611e67565b915050610bea565b5060008167ffffffffffffffff811115610cc057610cc0611ac2565b604051908082528060200260200182016040528015610d3057816020015b6040805160808101825260008082526020808301829052928201819052606082015282527fffffffffffffffffffffffffffffffffffffffffffffffffffffffffffffffff909201910181610cde5790505b50905060005b82811015610d7d57838181518110610d5057610d50611e09565b6020026020010151828281518110610d6a57610d6a611e09565b6020908102919091010152600101610d36565b50949350505050565b6001546040517f6352211e000000000000000000000000000000000000000000000000000000008152600481018390528291339173ffffffffffffffffffffffffffffffffffffffff90911690636352211e90602401602060405180830381865afa158015610df9573d6000803e3d6000fd5b505050506040513d601f19601f82011682018060405250810190610e1d9190611d43565b73ffffffffffffffffffffffffffffffffffffffff1603610e805760405162461bcd60e51b815260206004820181905260248201527f43616c6c657220697320746865206f776e6572206f662074686520746f6b656e6044820152606401610550565b610e886119d8565b600082815260026020818152604092839020835160808101855281548152600182015473ffffffffffffffffffffffffffffffffffffffff169281019290925291820154928101929092526003015460ff16151560608201819052610f2f5760405162461bcd60e51b815260206004820152601860248201527f5468697320636172206973206e6f7420666f722073616c6500000000000000006044820152606401610550565b8060400151341015610f835760405162461bcd60e51b815260206004820152601860248201527f496e73756666696369656e742066756e64732073656e742e00000000000000006044820152606401610550565b60208101516001546040517f42842e0e00000000000000000000000000000000000000000000000000000000815273ffffffffffffffffffffffffffffffffffffffff808416600483015233602483015260448201879052909116906342842e0e90606401600060405180830381600087803b15801561100257600080fd5b505af1158015611016573d6000803e3d6000fd5b505050602083015160405173ffffffffffffffffffffffffffffffffffffffff90911691503480156108fc02916000818181858888f19350505050158015611062573d6000803e3d6000fd5b50600084815260026020526040908190206003810180547fffffffffffffffffffffffffffffffffffffffffffffffffffffffffffffff0016905560010180547fffffffffffffffffffffffff00000000000000000000000000000000000000001633908117909155838201519151909173ffffffffffffffffffffffffffffffffffffffff84169187917f8205a71867f7292bcef9e53d4774758d6173b03f63017dec9a03a6664b429dc59161111b91815260200190565b60405180910390a4505061112f6001600055565b5050565b6001546040517f6352211e000000000000000000000000000000000000000000000000000000008152600481018490528391339173ffffffffffffffffffffffffffffffffffffffff90911690636352211e90602401602060405180830381865afa1580156111a6573d6000803e3d6000fd5b505050506040513d601f19601f820116820180604052508101906111ca9190611d43565b73ffffffffffffffffffffffffffffffffffffffff16146112525760405162461bcd60e51b8152602060048201526024808201527f43616c6c6572206973206e6f7420746865206f776e6572206f6620746865207460448201527f6f6b656e000000000000000000000000000000000000000000000000000000006064820152608401610550565b60008381526002602052604090206003015460ff166112b35760405162461bcd60e51b815260206004820152601f60248201527f5468697320636172206973206e6f74206c697374656420666f722073616c65006044820152606401610550565b600083815260026020819052604091829020018390555183907fd11cbbf15d6017bc3df85488c192e97ea0fd945f42a784c51384e2280e5a0d5f9061083f9085815260200190565b600154604080517ff08b82e6000000000000000000000000000000000000000000000000000000008152905160009273ffffffffffffffffffffffffffffffffffffffff169163f08b82e69160048083019260209291908290030181865afa15801561136b573d6000803e3d6000fd5b505050506040513d601f19601f8201168201806040525081019061138f9190611df0565b61139a906001611e9f565b6001546040517fcd279c7c00000000000000000000000000000000000000000000000000000000815291925073ffffffffffffffffffffffffffffffffffffffff169063cd279c7c906113f590339085908790600401611eb2565b600060405180830381600087803b15801561140f57600080fd5b505af1158015611423573d6000803e3d6000fd5b5050604080516080810182528481523360208083018281526000848601818152606086018281528a83526002948590528783209651875592516001870180547fffffffffffffffffffffffff00000000000000000000000000000000000000001673ffffffffffffffffffffffffffffffffffffffff909216919091179055519285019290925551600390930180547fffffffffffffffffffffffffffffffffffffffffffffffffffffffffffffff00169315159390931790925591519193508492507ffc3e46b20179ee86f15f5ceddb39a3ebf27068747e5c22137848d2e5716366d791a35050565b6001546040517f6352211e000000000000000000000000000000000000000000000000000000008152600481018490528391339173ffffffffffffffffffffffffffffffffffffffff90911690636352211e90602401602060405180830381865afa158015611580573d6000803e3d6000fd5b505050506040513d601f19601f820116820180604052508101906115a49190611d43565b73ffffffffffffffffffffffffffffffffffffffff161461162c5760405162461bcd60e51b8152602060048201526024808201527f43616c6c6572206973206e6f7420746865206f776e6572206f6620746865207460448201527f6f6b656e000000000000000000000000000000000000000000000000000000006064820152608401610550565b60008381526002602052604090206003015460ff16156116b45760405162461bcd60e51b815260206004820152602360248201527f546869732063617220697320616c7265616479206c697374656420666f72207360448201527f616c6500000000000000000000000000000000000000000000000000000000006064820152608401610550565b600082116117045760405162461bcd60e51b815260206004820152601c60248201527f5072696365206d7573742062652067726561746572207468616e2030000000006044820152606401610550565b6001546040517f6352211e00000000000000000000000000000000000000000000000000000000815260048101859052339173ffffffffffffffffffffffffffffffffffffffff1690636352211e90602401602060405180830381865afa158015611773573d6000803e3d6000fd5b505050506040513d601f19601f820116820180604052508101906117979190611d43565b73ffffffffffffffffffffffffffffffffffffffff161461181f5760405162461bcd60e51b8152602060048201526024808201527f43616c6c6572206973206e6f7420746865206f776e6572206f6620746865207460448201527f6f6b656e000000000000000000000000000000000000000000000000000000006064820152608401610550565b60008381526002602052604090819020600190810154905491517f6352211e0000000000000000000000000000000000000000000000000000000081526004810186905273ffffffffffffffffffffffffffffffffffffffff918216929190911690636352211e90602401602060405180830381865afa1580156118a7573d6000803e3d6000fd5b505050506040513d601f19601f820116820180604052508101906118cb9190611d43565b73ffffffffffffffffffffffffffffffffffffffff16146119535760405162461bcd60e51b8152602060048201526024808201527f43616c6c6572206973206e6f7420746865206f776e6572206f6620746865207460448201527f6f6b656e000000000000000000000000000000000000000000000000000000006064820152608401610550565b60008381526002602081905260409182902090810184905560030180547fffffffffffffffffffffffffffffffffffffffffffffffffffffffffffffff0016600117905551339084907f346237025e4b201cfbdb8011c7afcd8a0cc16c50e910d6ac5645ab7406be429d906119cb9086815260200190565b60405180910390a3505050565b600260005403611a14576040517f3ee5aeb500000000000000000000000000000000000000000000000000000000815260040160405180910390fd5b6002600055565b600060208284031215611a2d57600080fd5b81357fffffffff0000000000000000000000000000000000000000000000000000000081168114611a5d57600080fd5b9392505050565b600060208284031215611a7657600080fd5b5035919050565b8151815260208083015173ffffffffffffffffffffffffffffffffffffffff169082015260408083015190820152606080830151151590820152608081015b92915050565b7f4e487b7100000000000000000000000000000000000000000000000000000000600052604160045260246000fd5b600082601f830112611b0257600080fd5b813567ffffffffffffffff80821115611b1d57611b1d611ac2565b604051601f83017fffffffffffffffffffffffffffffffffffffffffffffffffffffffffffffffe0908116603f01168101908282118183101715611b6357611b63611ac2565b81604052838152866020858801011115611b7c57600080fd5b836020870160208301376000602085830101528094505050505092915050565b60008060408385031215611baf57600080fd5b82359150602083013567ffffffffffffffff811115611bcd57600080fd5b611bd985828601611af1565b9150509250929050565b73ffffffffffffffffffffffffffffffffffffffff81168114611c0557600080fd5b50565b600060208284031215611c1a57600080fd5b8135611a5d81611be3565b6020808252825182820181905260009190848201906040850190845b81811015611c5d57835183529284019291840191600101611c41565b50909695505050505050565b6020808252825182820181905260009190848201906040850190845b81811015611c5d57611cd18385518051825273ffffffffffffffffffffffffffffffffffffffff6020820151166020830152604081015160408301526060810151151560608301525050565b9284019260809290920191600101611c85565b60008060408385031215611cf757600080fd5b50508035926020909101359150565b600060208284031215611d1857600080fd5b813567ffffffffffffffff811115611d2f57600080fd5b611d3b84828501611af1565b949350505050565b600060208284031215611d5557600080fd5b8151611a5d81611be3565b6000815180845260005b81811015611d8657602081850181015186830182015201611d6a565b5060006020828601015260207fffffffffffffffffffffffffffffffffffffffffffffffffffffffffffffffe0601f83011685010191505092915050565b828152604060208201526000611d3b6040830184611d60565b602081526000611a5d6020830184611d60565b600060208284031215611e0257600080fd5b5051919050565b7f4e487b7100000000000000000000000000000000000000000000000000000000600052603260045260246000fd5b7f4e487b7100000000000000000000000000000000000000000000000000000000600052601160045260246000fd5b60007fffffffffffffffffffffffffffffffffffffffffffffffffffffffffffffffff8203611e9857611e98611e38565b5060010190565b80820180821115611abc57611abc611e38565b73ffffffffffffffffffffffffffffffffffffffff84168152826020820152606060408201526000611ee76060830184611d60565b9594505050505056fea2646970667358221220b9b9900c471ce20e7073be33d44c64b948161d446e449cfa8dced52b3fc679ed64736f6c63430008180033",
  "linkReferences": {},
  "deployedLinkReferences": {}
}