{
  "address": "0xe7f1725E7734CE288F8367e1Bb143E90bb3F0512",
  "_format": "hh-sol-artifact-1",
  "contractName": "CarMarketplace",
  "sourceName": "contracts/CarMarketplace.sol",
  "abi": [
    {
      "inputs": [
        {
          "internalType": "address",
          "name": "_carToken",
          "type": "address"
        }
      ],
      "stateMutability": "nonpayable",
      "type": "constructor"
    },
    {
      "inputs": [],
      "name": "ReentrancyGuardReentrantCall",
      "type": "error"
    },
    {
      "anonymous": false,
      "inputs": [
        {
          "indexed": true,
          "internalType": "uint256",
          "name": "tokenId",
          "type": "uint256"
        },
        {
          "indexed": true,
          "internalType": "address",
          "name": "seller",
          "type": "address"
        },
        {
          "indexed": false,
          "internalType": "uint256",
          "name": "startPrice",
          "type": "uint256"
        },
        {
          "indexed": false,
          "internalType": "uint256",
          "name": "auctionEndTime",
          "type": "uint256"
        }
      ],
      "name": "AuctionCreated",
      "type": "event"
    },
    {
      "anonymous": false,
      "inputs": [
        {
          "indexed": true,
          "internalType": "uint256",
          "name": "tokenId",
          "type": "uint256"
        },
        {
          "indexed": true,
          "internalType": "address",
          "name": "winner",
          "type": "address"
        },
        {
          "indexed": false,
          "internalType": "uint256",
          "name": "price",
          "type": "uint256"
        }
      ],
      "name": "AuctionEnded",
      "type": "event"
    },
    {
      "anonymous": false,
      "inputs": [
        {
          "indexed": true,
          "internalType": "uint256",
          "name": "tokenId",
          "type": "uint256"
        },
        {
          "indexed": true,
          "internalType": "address",
          "name": "bidder",
          "type": "address"
        },
        {
          "indexed": false,
          "internalType": "uint256",
          "name": "amount",
          "type": "uint256"
        }
      ],
      "name": "BidPlaced",
      "type": "event"
    },
    {
      "anonymous": false,
      "inputs": [
        {
          "indexed": true,
          "internalType": "uint256",
          "name": "tokenId",
          "type": "uint256"
        },
        {
          "indexed": true,
          "internalType": "address",
          "name": "owner",
          "type": "address"
        }
      ],
      "name": "CarCreated",
      "type": "event"
    },
    {
      "anonymous": false,
      "inputs": [
        {
          "indexed": true,
          "internalType": "uint256",
          "name": "tokenId",
          "type": "uint256"
        },
        {
          "indexed": true,
          "internalType": "address",
          "name": "seller",
          "type": "address"
        },
        {
          "indexed": false,
          "internalType": "uint256",
          "name": "price",
          "type": "uint256"
        }
      ],
      "name": "CarListed",
      "type": "event"
    },
    {
      "anonymous": false,
      "inputs": [
        {
          "indexed": true,
          "internalType": "uint256",
          "name": "tokenId",
          "type": "uint256"
        },
        {
          "indexed": false,
          "internalType": "uint256",
          "name": "price",
          "type": "uint256"
        }
      ],
      "name": "CarPriceUpdated",
      "type": "event"
    },
    {
      "anonymous": false,
      "inputs": [
        {
          "indexed": true,
          "internalType": "uint256",
          "name": "tokenId",
          "type": "uint256"
        },
        {
          "indexed": true,
          "internalType": "address",
          "name": "seller",
          "type": "address"
        },
        {
          "indexed": true,
          "internalType": "address",
          "name": "buyer",
          "type": "address"
        },
        {
          "indexed": false,
          "internalType": "uint256",
          "name": "price",
          "type": "uint256"
        }
      ],
      "name": "CarSold",
      "type": "event"
    },
    {
      "anonymous": false,
      "inputs": [
        {
          "indexed": true,
          "internalType": "uint256",
          "name": "tokenId",
          "type": "uint256"
        },
        {
          "indexed": false,
          "internalType": "string",
          "name": "uri",
          "type": "string"
        }
      ],
      "name": "CarURIUpdated",
      "type": "event"
    },
    {
      "anonymous": false,
      "inputs": [
        {
          "indexed": true,
          "internalType": "uint256",
          "name": "tokenId",
          "type": "uint256"
        },
        {
          "indexed": true,
          "internalType": "address",
          "name": "seller",
          "type": "address"
        }
      ],
      "name": "CarUnlisted",
      "type": "event"
    },
    {
      "inputs": [
        {
          "internalType": "uint256",
          "name": "",
          "type": "uint256"
        }
      ],
      "name": "auctions",
      "outputs": [
        {
          "internalType": "uint256",
          "name": "tokenId",
          "type": "uint256"
        },
        {
          "internalType": "uint256",
          "name": "startPrice",
          "type": "uint256"
        },
        {
          "internalType": "uint256",
          "name": "highestBid",
          "type": "uint256"
        },
        {
          "internalType": "address payable",
          "name": "highestBidder",
          "type": "address"
        },
        {
          "internalType": "uint256",
          "name": "auctionEndTime",
          "type": "uint256"
        }
      ],
      "stateMutability": "view",
      "type": "function"
    },
    {
      "inputs": [
        {
          "internalType": "uint256",
          "name": "_tokenId",
          "type": "uint256"
        }
      ],
      "name": "buyCar",
      "outputs": [],
      "stateMutability": "payable",
      "type": "function"
    },
    {
      "inputs": [],
      "name": "carToken",
      "outputs": [
        {
          "internalType": "contract CarToken",
          "name": "",
          "type": "address"
        }
      ],
      "stateMutability": "view",
      "type": "function"
    },
    {
      "inputs": [
        {
          "internalType": "uint256",
          "name": "",
          "type": "uint256"
        }
      ],
      "name": "cars",
      "outputs": [
        {
          "internalType": "uint256",
          "name": "tokenId",
          "type": "uint256"
        },
        {
          "internalType": "bool",
          "name": "isListed",
          "type": "bool"
        },
        {
          "components": [
            {
              "internalType": "uint256",
              "name": "tokenId",
              "type": "uint256"
            },
            {
              "internalType": "uint256",
              "name": "price",
              "type": "uint256"
            }
          ],
          "internalType": "struct CarMarketplace.Listing",
          "name": "listing",
          "type": "tuple"
        },
        {
          "internalType": "bool",
          "name": "isInAuction",
          "type": "bool"
        },
        {
          "components": [
            {
              "internalType": "uint256",
              "name": "tokenId",
              "type": "uint256"
            },
            {
              "internalType": "uint256",
              "name": "startPrice",
              "type": "uint256"
            },
            {
              "internalType": "uint256",
              "name": "highestBid",
              "type": "uint256"
            },
            {
              "internalType": "address payable",
              "name": "highestBidder",
              "type": "address"
            },
            {
              "internalType": "uint256",
              "name": "auctionEndTime",
              "type": "uint256"
            }
          ],
          "internalType": "struct CarMarketplace.Auction",
          "name": "auction",
          "type": "tuple"
        }
      ],
      "stateMutability": "view",
      "type": "function"
    },
    {
      "inputs": [
        {
          "internalType": "string",
          "name": "uri",
          "type": "string"
        }
      ],
      "name": "createCar",
      "outputs": [],
      "stateMutability": "nonpayable",
      "type": "function"
    },
    {
      "inputs": [
        {
          "internalType": "uint256",
          "name": "_tokenId",
          "type": "uint256"
        }
      ],
      "name": "endAuction",
      "outputs": [],
      "stateMutability": "nonpayable",
      "type": "function"
    },
    {
      "inputs": [],
      "name": "getActiveAuctions",
      "outputs": [
        {
          "components": [
            {
              "internalType": "uint256",
              "name": "tokenId",
              "type": "uint256"
            },
            {
              "internalType": "uint256",
              "name": "startPrice",
              "type": "uint256"
            },
            {
              "internalType": "uint256",
              "name": "highestBid",
              "type": "uint256"
            },
            {
              "internalType": "address payable",
              "name": "highestBidder",
              "type": "address"
            },
            {
              "internalType": "uint256",
              "name": "auctionEndTime",
              "type": "uint256"
            }
          ],
          "internalType": "struct CarMarketplace.Auction[]",
          "name": "",
          "type": "tuple[]"
        }
      ],
      "stateMutability": "view",
      "type": "function"
    },
    {
      "inputs": [
        {
          "internalType": "uint256",
          "name": "_tokenId",
          "type": "uint256"
        }
      ],
      "name": "getAuctionDetails",
      "outputs": [
        {
          "components": [
            {
              "internalType": "uint256",
              "name": "tokenId",
              "type": "uint256"
            },
            {
              "internalType": "uint256",
              "name": "startPrice",
              "type": "uint256"
            },
            {
              "internalType": "uint256",
              "name": "highestBid",
              "type": "uint256"
            },
            {
              "internalType": "address payable",
              "name": "highestBidder",
              "type": "address"
            },
            {
              "internalType": "uint256",
              "name": "auctionEndTime",
              "type": "uint256"
            }
          ],
          "internalType": "struct CarMarketplace.Auction",
          "name": "",
          "type": "tuple"
        }
      ],
      "stateMutability": "view",
      "type": "function"
    },
    {
      "inputs": [
        {
          "internalType": "uint256",
          "name": "_tokenId",
          "type": "uint256"
        }
      ],
      "name": "getAuctionEndTime",
      "outputs": [
        {
          "internalType": "uint256",
          "name": "",
          "type": "uint256"
        }
      ],
      "stateMutability": "view",
      "type": "function"
    },
    {
      "inputs": [
        {
          "internalType": "uint256",
          "name": "_tokenId",
          "type": "uint256"
        }
      ],
      "name": "getCarDetails",
      "outputs": [
        {
          "components": [
            {
              "internalType": "uint256",
              "name": "tokenId",
              "type": "uint256"
            },
            {
              "internalType": "bool",
              "name": "isListed",
              "type": "bool"
            },
            {
              "components": [
                {
                  "internalType": "uint256",
                  "name": "tokenId",
                  "type": "uint256"
                },
                {
                  "internalType": "uint256",
                  "name": "price",
                  "type": "uint256"
                }
              ],
              "internalType": "struct CarMarketplace.Listing",
              "name": "listing",
              "type": "tuple"
            },
            {
              "internalType": "bool",
              "name": "isInAuction",
              "type": "bool"
            },
            {
              "components": [
                {
                  "internalType": "uint256",
                  "name": "tokenId",
                  "type": "uint256"
                },
                {
                  "internalType": "uint256",
                  "name": "startPrice",
                  "type": "uint256"
                },
                {
                  "internalType": "uint256",
                  "name": "highestBid",
                  "type": "uint256"
                },
                {
                  "internalType": "address payable",
                  "name": "highestBidder",
                  "type": "address"
                },
                {
                  "internalType": "uint256",
                  "name": "auctionEndTime",
                  "type": "uint256"
                }
              ],
              "internalType": "struct CarMarketplace.Auction",
              "name": "auction",
              "type": "tuple"
            }
          ],
          "internalType": "struct CarMarketplace.Car",
          "name": "",
          "type": "tuple"
        }
      ],
      "stateMutability": "view",
      "type": "function"
    },
    {
      "inputs": [
        {
          "internalType": "address",
          "name": "owner",
          "type": "address"
        }
      ],
      "name": "getCarsOwnedBy",
      "outputs": [
        {
          "internalType": "uint256[]",
          "name": "",
          "type": "uint256[]"
        }
      ],
      "stateMutability": "view",
      "type": "function"
    },
    {
      "inputs": [
        {
          "internalType": "uint256",
          "name": "ethAmount",
          "type": "uint256"
        }
      ],
      "name": "getETHtoUSD",
      "outputs": [
        {
          "internalType": "uint256",
          "name": "",
          "type": "uint256"
        }
      ],
      "stateMutability": "view",
      "type": "function"
    },
    {
      "inputs": [
        {
          "internalType": "uint256",
          "name": "_tokenId",
          "type": "uint256"
        }
      ],
      "name": "getHighestBidderAndAmount",
      "outputs": [
        {
          "internalType": "address",
          "name": "",
          "type": "address"
        },
        {
          "internalType": "uint256",
          "name": "",
          "type": "uint256"
        }
      ],
      "stateMutability": "view",
      "type": "function"
    },
    {
      "inputs": [],
      "name": "getListedCars",
      "outputs": [
        {
          "components": [
            {
              "internalType": "uint256",
              "name": "tokenId",
              "type": "uint256"
            },
            {
              "internalType": "address",
              "name": "seller",
              "type": "address"
            },
            {
              "internalType": "uint256",
              "name": "price",
              "type": "uint256"
            }
          ],
          "internalType": "struct CarMarketplace.ListingDetails[]",
          "name": "",
          "type": "tuple[]"
        }
      ],
      "stateMutability": "view",
      "type": "function"
    },
    {
      "inputs": [
        {
          "internalType": "uint256",
          "name": "_tokenId",
          "type": "uint256"
        }
      ],
      "name": "getListingDetails",
      "outputs": [
        {
          "components": [
            {
              "internalType": "uint256",
              "name": "tokenId",
              "type": "uint256"
            },
            {
              "internalType": "address",
              "name": "seller",
              "type": "address"
            },
            {
              "internalType": "uint256",
              "name": "price",
              "type": "uint256"
            }
          ],
          "internalType": "struct CarMarketplace.ListingDetails",
          "name": "",
          "type": "tuple"
        }
      ],
      "stateMutability": "view",
      "type": "function"
    },
    {
      "inputs": [
        {
          "internalType": "uint256",
          "name": "_tokenId",
          "type": "uint256"
        }
      ],
      "name": "isTokenInAuction",
      "outputs": [
        {
          "internalType": "bool",
          "name": "",
          "type": "bool"
        }
      ],
      "stateMutability": "view",
      "type": "function"
    },
    {
      "inputs": [
        {
          "internalType": "uint256",
          "name": "_tokenId",
          "type": "uint256"
        }
      ],
      "name": "isTokenListed",
      "outputs": [
        {
          "internalType": "bool",
          "name": "",
          "type": "bool"
        }
      ],
      "stateMutability": "view",
      "type": "function"
    },
    {
      "inputs": [
        {
          "internalType": "uint256",
          "name": "_tokenId",
          "type": "uint256"
        },
        {
          "internalType": "uint256",
          "name": "_price",
          "type": "uint256"
        }
      ],
      "name": "listCar",
      "outputs": [],
      "stateMutability": "nonpayable",
      "type": "function"
    },
    {
      "inputs": [
        {
          "internalType": "uint256",
          "name": "",
          "type": "uint256"
        }
      ],
      "name": "listings",
      "outputs": [
        {
          "internalType": "uint256",
          "name": "tokenId",
          "type": "uint256"
        },
        {
          "internalType": "uint256",
          "name": "price",
          "type": "uint256"
        }
      ],
      "stateMutability": "view",
      "type": "function"
    },
    {
      "inputs": [
        {
          "internalType": "uint256",
          "name": "_tokenId",
          "type": "uint256"
        }
      ],
      "name": "placeBid",
      "outputs": [],
      "stateMutability": "payable",
      "type": "function"
    },
    {
      "inputs": [
        {
          "internalType": "uint256",
          "name": "_tokenId",
          "type": "uint256"
        },
        {
          "internalType": "uint256",
          "name": "_startPrice",
          "type": "uint256"
        },
        {
          "internalType": "uint256",
          "name": "_duration",
          "type": "uint256"
        }
      ],
      "name": "startAuction",
      "outputs": [],
      "stateMutability": "nonpayable",
      "type": "function"
    },
    {
      "inputs": [
        {
          "internalType": "uint256",
          "name": "_tokenId",
          "type": "uint256"
        }
      ],
      "name": "unlistCar",
      "outputs": [],
      "stateMutability": "nonpayable",
      "type": "function"
    },
    {
      "inputs": [
        {
          "internalType": "uint256",
          "name": "_tokenId",
          "type": "uint256"
        },
        {
          "internalType": "uint256",
          "name": "_price",
          "type": "uint256"
        }
      ],
      "name": "updateCarPrice",
      "outputs": [],
      "stateMutability": "nonpayable",
      "type": "function"
    },
    {
      "inputs": [
        {
          "internalType": "uint256",
          "name": "_tokenId",
          "type": "uint256"
        },
        {
          "internalType": "string",
          "name": "_uri",
          "type": "string"
        }
      ],
      "name": "updateCarURI",
      "outputs": [],
      "stateMutability": "nonpayable",
      "type": "function"
    }
  ],
  "bytecode": "0x60806040523480156200001157600080fd5b50604051620036ed380380620036ed83398101604081905262000034916200007c565b6001600081905580546001600160a01b039092166001600160a01b031992831617905560028054909116738a753747a1fa494ec906ce90e9f37563a8af630e179055620000ae565b6000602082840312156200008f57600080fd5b81516001600160a01b0381168114620000a757600080fd5b9392505050565b61362f80620000be6000396000f3fe60806040526004361061018b5760003560e01c80639b83cddc116100d6578063ede6fbf51161007f578063f7746e3611610059578063f7746e3614610587578063fb05da2e1461063a578063fe02c8a41461066757600080fd5b8063ede6fbf51461051a578063f20e5e351461053a578063f504fa641461056757600080fd5b8063cf44b5d5116100b0578063cf44b5d514610477578063d530bf3314610499578063de74e57b146104d157600080fd5b80639b83cddc14610404578063b1261ea814610437578063b9a2de3a1461045757600080fd5b80635b4074401161013857806391e078bb1161011257806391e078bb146103a0578063930e79f1146103c05780639979ef45146103f157600080fd5b80635b4074401461031d5780636c2310601461034a5780637c17855d1461035d57600080fd5b8063526167ee11610169578063526167ee1461021257806353b2643714610273578063571a26a01461029557600080fd5b806321ccf4bc14610190578063472ec454146101c357806347789627146101f0575b600080fd5b34801561019c57600080fd5b506101b06101ab366004612f10565b610687565b6040519081526020015b60405180910390f35b3480156101cf57600080fd5b506101e36101de366004612f10565b61077f565b6040516101ba9190612f29565b3480156101fc57600080fd5b5061021061020b366004613092565b610835565b005b34801561021e57600080fd5b5061025461022d366004612f10565b600090815260046020526040902060038101546002909101546001600160a01b0390911691565b604080516001600160a01b0390931683526020830191909152016101ba565b34801561027f57600080fd5b506102886109f5565b6040516101ba91906130d9565b3480156102a157600080fd5b506102ec6102b0366004612f10565b6004602081905260009182526040909120805460018201546002830154600384015493909401549193909290916001600160a01b039091169085565b604080519586526020860194909452928401919091526001600160a01b03166060830152608082015260a0016101ba565b34801561032957600080fd5b5061033d61033836600461315c565b610c20565b6040516101ba9190613180565b610210610358366004612f10565b610e60565b34801561036957600080fd5b50610390610378366004612f10565b60009081526003602052604090206004015460ff1690565b60405190151581526020016101ba565b3480156103ac57600080fd5b506102106103bb3660046131b8565b61126b565b3480156103cc57600080fd5b506101b06103db366004612f10565b6000908152600460208190526040909120015490565b6102106103ff366004612f10565b6116c5565b34801561041057600080fd5b5061039061041f366004612f10565b60009081526003602052604090206001015460ff1690565b34801561044357600080fd5b506102106104523660046131e4565b611b8a565b34801561046357600080fd5b50610210610472366004612f10565b611d80565b34801561048357600080fd5b5061048c612247565b6040516101ba9190613206565b3480156104a557600080fd5b506001546104b9906001600160a01b031681565b6040516001600160a01b0390911681526020016101ba565b3480156104dd57600080fd5b506105056104ec366004612f10565b6005602052600090815260409020805460019091015482565b604080519283526020830191909152016101ba565b34801561052657600080fd5b5061021061053536600461327c565b6124bd565b34801561054657600080fd5b5061055a610555366004612f10565b61270c565b6040516101ba91906132b1565b34801561057357600080fd5b50610210610582366004612f10565b61279c565b34801561059357600080fd5b506106296105a2366004612f10565b60036020818152600092835260409283902080546001820154855180870187526002840154815294830154858501526004830154865160a0810188526005850154815260068501549581019590955260078401549685019690965260088301546001600160a01b0316606085015260099092015460808401529360ff918216939291169085565b6040516101ba9594939291906132f9565b34801561064657600080fd5b5061065a610655366004612f10565b612a38565b6040516101ba919061336e565b34801561067357600080fd5b506102106106823660046131e4565b612b28565b600080600260009054906101000a90046001600160a01b03166001600160a01b031663feaf968c6040518163ffffffff1660e01b815260040160a060405180830381865afa1580156106dd573d6000803e3d6000fd5b505050506040513d601f19601f8201168201806040525081019061070191906133b7565b5050509150506000811361075c5760405162461bcd60e51b815260206004820152600d60248201527f496e76616c69642070726963650000000000000000000000000000000000000060448201526064015b60405180910390fd5b60006305f5e10061076d8386613436565b610777919061344d565b949350505050565b610787612e8a565b50600090815260036020818152604092839020835160a0808201865282548252600183015460ff908116151583860152865180880188526002850154815295840154868601528287019590955260048301549094161515606080830191909152855194850186526005830154855260068301549385019390935260078201549484019490945260088101546001600160a01b0316918301919091526009015460808281019190915282015290565b6001546040517f6352211e00000000000000000000000000000000000000000000000000000000815260048101849052839133916001600160a01b0390911690636352211e90602401602060405180830381865afa15801561089b573d6000803e3d6000fd5b505050506040513d601f19601f820116820180604052508101906108bf9190613488565b6001600160a01b03161461093b5760405162461bcd60e51b815260206004820152602d60248201527f4361724d61726b6574706c6163653a2063616c6c6572206973206e6f7420746860448201527f6520746f6b656e206f776e6572000000000000000000000000000000000000006064820152608401610753565b6001546040517f162094c40000000000000000000000000000000000000000000000000000000081526001600160a01b039091169063162094c4906109869086908690600401613509565b600060405180830381600087803b1580156109a057600080fd5b505af11580156109b4573d6000803e3d6000fd5b50505050827fc5a2cca31029450031d3bd3bae967d9dc7ebd1cb4f9ea7bf26b13c6b8d1a2829836040516109e89190613522565b60405180910390a2505050565b60606000610a01612dc7565b905060008167ffffffffffffffff811115610a1e57610a1e612fb8565b604051908082528060200260200182016040528015610a7c57816020015b610a6960405180606001604052806000815260200160006001600160a01b03168152602001600081525090565b815260200190600190039081610a3c5790505b509050600060015b600160009054906101000a90046001600160a01b03166001600160a01b031663f08b82e66040518163ffffffff1660e01b8152600401602060405180830381865afa158015610ad7573d6000803e3d6000fd5b505050506040513d601f19601f82011682018060405250810190610afb9190613535565b8111610c175760008181526003602052604090206001015460ff1615610c05576040805160608101825282815260015491517f6352211e00000000000000000000000000000000000000000000000000000000815260048101849052909160208301916001600160a01b0390911690636352211e90602401602060405180830381865afa158015610b90573d6000803e3d6000fd5b505050506040513d601f19601f82011682018060405250810190610bb49190613488565b6001600160a01b031681526000838152600560209081526040909120600101549101528351849084908110610beb57610beb61354e565b60200260200101819052508180610c019061357d565b9250505b80610c0f8161357d565b915050610a84565b50909392505050565b60606000600160009054906101000a90046001600160a01b03166001600160a01b031663f08b82e66040518163ffffffff1660e01b8152600401602060405180830381865afa158015610c77573d6000803e3d6000fd5b505050506040513d601f19601f82011682018060405250810190610c9b9190613535565b905060008167ffffffffffffffff811115610cb857610cb8612fb8565b604051908082528060200260200182016040528015610ce1578160200160208202803683370190505b509050600060015b838111610dc4576001546040517f6352211e000000000000000000000000000000000000000000000000000000008152600481018390526001600160a01b03888116921690636352211e90602401602060405180830381865afa158015610d54573d6000803e3d6000fd5b505050506040513d601f19601f82011682018060405250810190610d789190613488565b6001600160a01b031603610db25780838381518110610d9957610d9961354e565b602090810291909101015281610dae8161357d565b9250505b80610dbc8161357d565b915050610ce9565b5060008167ffffffffffffffff811115610de057610de0612fb8565b604051908082528060200260200182016040528015610e09578160200160208202803683370190505b50905060005b82811015610e5657838181518110610e2957610e2961354e565b6020026020010151828281518110610e4357610e4361354e565b6020908102919091010152600101610e0f565b5095945050505050565b6001546040517f6352211e00000000000000000000000000000000000000000000000000000000815260048101839052829133916001600160a01b0390911690636352211e90602401602060405180830381865afa158015610ec6573d6000803e3d6000fd5b505050506040513d601f19601f82011682018060405250810190610eea9190613488565b6001600160a01b031603610f665760405162461bcd60e51b815260206004820152602960248201527f4361724d61726b6574706c6163653a2063616c6c65722069732074686520746f60448201527f6b656e206f776e657200000000000000000000000000000000000000000000006064820152608401610753565b600082815260036020526040902060010154829060ff16610fef5760405162461bcd60e51b815260206004820152602160248201527f4361724d61726b6574706c6163653a20636172206973206e6f74206c6973746560448201527f64000000000000000000000000000000000000000000000000000000000000006064820152608401610753565b6000838152600560209081526040918290208251808401909352805483526001015490820181905234101561108c5760405162461bcd60e51b815260206004820152602260248201527f4361724d61726b6574706c6163653a20696e73756666696369656e742066756e60448201527f64730000000000000000000000000000000000000000000000000000000000006064820152608401610753565b6001546040517f6352211e000000000000000000000000000000000000000000000000000000008152600481018690526000916001600160a01b031690636352211e90602401602060405180830381865afa1580156110ef573d6000803e3d6000fd5b505050506040513d601f19601f820116820180604052508101906111139190613488565b6001546040517f42842e0e0000000000000000000000000000000000000000000000000000000081526001600160a01b038084166004830152336024830152604482018990529293509116906342842e0e90606401600060405180830381600087803b15801561118257600080fd5b505af1158015611196573d6000803e3d6000fd5b50506040516001600160a01b03841692503480156108fc029250906000818181858888f193505050501580156111d0573d6000803e3d6000fd5b50600085815260056020908152604080832083815560019081018490556003808452828520918201805460ff1916905582518084018452858152808501868152958b90528185525160028301559351930192909255905134815233916001600160a01b0384169188917f8205a71867f7292bcef9e53d4774758d6173b03f63017dec9a03a6664b429dc5910160405180910390a45050505050565b6001546040517f6352211e00000000000000000000000000000000000000000000000000000000815260048101859052849133916001600160a01b0390911690636352211e90602401602060405180830381865afa1580156112d1573d6000803e3d6000fd5b505050506040513d601f19601f820116820180604052508101906112f59190613488565b6001600160a01b0316146113715760405162461bcd60e51b815260206004820152602d60248201527f4361724d61726b6574706c6163653a2063616c6c6572206973206e6f7420746860448201527f6520746f6b656e206f776e6572000000000000000000000000000000000000006064820152608401610753565b600084815260036020526040902060010154849060ff16156113fb5760405162461bcd60e51b815260206004820152602560248201527f4361724d61726b6574706c6163653a2063617220697320616c7265616479206c60448201527f69737465640000000000000000000000000000000000000000000000000000006064820152608401610753565b600085815260036020526040902060040154859060ff16156114855760405162461bcd60e51b815260206004820152602160248201527f4361724d61726b6574706c6163653a2063617220697320696e2061756374696f60448201527f6e000000000000000000000000000000000000000000000000000000000000006064820152608401610753565b600085116114fb5760405162461bcd60e51b815260206004820152603260248201527f4361724d61726b6574706c6163653a207374617274207072696365206d75737460448201527f2062652067726561746572207468616e203000000000000000000000000000006064820152608401610753565b60008411801561150d575061012c8411155b61157f5760405162461bcd60e51b815260206004820152603a60248201527f4361724d61726b6574706c6163653a206475726174696f6e206d75737420626560448201527f206265747765656e203120616e6420333030207365636f6e64730000000000006064820152608401610753565b6040518060a001604052808781526020018681526020016000815260200160006001600160a01b0316815260200185426115b991906135b5565b905260008781526004602081815260408084208551815585830151600180830191825587840151600284019081556060890151600380860180546001600160a01b039384167fffffffffffffffffffffffff00000000000000000000000000000000000000009182161782556080909c0151878b01908155828a5297909a20988901805460ff191690941790935591909552915460058601555460068501559154600784015592546008830180549095169116179092555460099091015533867fc9050d42180a61cb0d9ebb8ad118b62fe6eab12cf12ff752c4a0cc7da9ddf627876116a588426135b5565b6040805192835260208301919091520160405180910390a3505050505050565b6001546040517f6352211e00000000000000000000000000000000000000000000000000000000815260048101839052829133916001600160a01b0390911690636352211e90602401602060405180830381865afa15801561172b573d6000803e3d6000fd5b505050506040513d601f19601f8201168201806040525081019061174f9190613488565b6001600160a01b0316036117cb5760405162461bcd60e51b815260206004820152602960248201527f4361724d61726b6574706c6163653a2063616c6c65722069732074686520746f60448201527f6b656e206f776e657200000000000000000000000000000000000000000000006064820152608401610753565b600082815260036020526040902060040154829060ff166118545760405162461bcd60e51b815260206004820152602560248201527f4361724d61726b6574706c6163653a20636172206973206e6f7420696e20617560448201527f6374696f6e0000000000000000000000000000000000000000000000000000006064820152608401610753565b60008381526004602081905260409091200154839042106118dd5760405162461bcd60e51b815260206004820152602560248201527f4361724d61726b6574706c6163653a2061756374696f6e206973206e6f74206160448201527f63746976650000000000000000000000000000000000000000000000000000006064820152608401610753565b600084815260046020818152604092839020835160a08101855281548152600182015492810183905260028201549481019490945260038101546001600160a01b0316606085015290910154608083015234116119a25760405162461bcd60e51b815260206004820152603760248201527f4361724d61726b6574706c6163653a20626964206d757374206265206869676860448201527f6572207468616e207468652073746172742070726963650000000000000000006064820152608401610753565b80604001513411611a1b5760405162461bcd60e51b815260206004820152603f60248201527f4361724d61726b6574706c6163653a20626964206d757374206265206869676860448201527f6572207468616e207468652063757272656e74206869676865737420626964006064820152608401610753565b60608101516001600160a01b031615611b0157600081606001516001600160a01b0316826040015160405160006040518083038185875af1925050503d8060008114611a83576040519150601f19603f3d011682016040523d82523d6000602084013e611a88565b606091505b5050905080611aff5760405162461bcd60e51b815260206004820152602b60248201527f4361724d61726b6574706c6163653a206661696c656420746f2073656e64207060448201527f726576696f7573206269640000000000000000000000000000000000000000006064820152608401610753565b505b600085815260046020526040908190203460028201819055600390910180547fffffffffffffffffffffffff00000000000000000000000000000000000000001633908117909155915187917f0e54eff26401bf69b81b26f60bd85ef47f5d85275c1d268d84f68d6897431c4791611b7b91815260200190565b60405180910390a35050505050565b6001546040517f6352211e00000000000000000000000000000000000000000000000000000000815260048101849052839133916001600160a01b0390911690636352211e90602401602060405180830381865afa158015611bf0573d6000803e3d6000fd5b505050506040513d601f19601f82011682018060405250810190611c149190613488565b6001600160a01b031614611c905760405162461bcd60e51b815260206004820152602d60248201527f4361724d61726b6574706c6163653a2063616c6c6572206973206e6f7420746860448201527f6520746f6b656e206f776e6572000000000000000000000000000000000000006064820152608401610753565b600083815260036020526040902060010154839060ff16611d195760405162461bcd60e51b815260206004820152602160248201527f4361724d61726b6574706c6163653a20636172206973206e6f74206c6973746560448201527f64000000000000000000000000000000000000000000000000000000000000006064820152608401610753565b6000848152600560209081526040808320600181018781556003808552948390209154600283015554930192909255905184815285917fd11cbbf15d6017bc3df85488c192e97ea0fd945f42a784c51384e2280e5a0d5f910160405180910390a250505050565b6001546040517f6352211e00000000000000000000000000000000000000000000000000000000815260048101839052829133916001600160a01b0390911690636352211e90602401602060405180830381865afa158015611de6573d6000803e3d6000fd5b505050506040513d601f19601f82011682018060405250810190611e0a9190613488565b6001600160a01b031614611e865760405162461bcd60e51b815260206004820152602d60248201527f4361724d61726b6574706c6163653a2063616c6c6572206973206e6f7420746860448201527f6520746f6b656e206f776e6572000000000000000000000000000000000000006064820152608401610753565b600082815260036020526040902060040154829060ff16611f0f5760405162461bcd60e51b815260206004820152602560248201527f4361724d61726b6574706c6163653a20636172206973206e6f7420696e20617560448201527f6374696f6e0000000000000000000000000000000000000000000000000000006064820152608401610753565b600083815260046020818152604092839020835160a0810185528154815260018201549281019290925260028101549382019390935260038301546001600160a01b0316606082015291015460808201819052421015611fd75760405162461bcd60e51b815260206004820152602960248201527f4361724d61726b6574706c6163653a2061756374696f6e20686173206e6f742060448201527f656e6465642079657400000000000000000000000000000000000000000000006064820152608401610753565b60608101516001600160a01b0316156121365760015460608201516040517f42842e0e0000000000000000000000000000000000000000000000000000000081523360048201526001600160a01b039182166024820152604481018790529116906342842e0e90606401600060405180830381600087803b15801561205b57600080fd5b505af115801561206f573d6000803e3d6000fd5b50505050604081810151905160009133918381818185875af1925050503d80600081146120b8576040519150601f19603f3d011682016040523d82523d6000602084013e6120bd565b606091505b50509050806121345760405162461bcd60e51b815260206004820152602660248201527f4361724d61726b6574706c6163653a206661696c656420746f2073656e64207060448201527f61796d656e7400000000000000000000000000000000000000000000000000006064820152608401610753565b505b60008481526004602081815260408084208481556001810185905560028101859055600380820180547fffffffffffffffffffffffff0000000000000000000000000000000000000000908116909155918501869055808452828620948501805460ff19169055825160a08101845286815280850187815281850188815260608084018a8152608085018b81529a8f9052948852925160058901559051600688015551600787015590516008860180549093166001600160a01b03918216179092559451600990940193909355928401518484015193519384529091169186917fd2aa34a4fdbbc6dff6a3e56f46e0f3ae2a31d7785ff3487aa5c95c642acea501910160405180910390a350505050565b6060600060015b600160009054906101000a90046001600160a01b03166001600160a01b031663f08b82e66040518163ffffffff1660e01b8152600401602060405180830381865afa1580156122a1573d6000803e3d6000fd5b505050506040513d601f19601f820116820180604052508101906122c59190613535565b81116123055760008181526003602052604090206004015460ff16156122f357816122ef8161357d565b9250505b806122fd8161357d565b91505061224e565b5060008167ffffffffffffffff81111561232157612321612fb8565b60405190808252806020026020018201604052801561238d57816020015b61237a6040518060a0016040528060008152602001600081526020016000815260200160006001600160a01b03168152602001600081525090565b81526020019060019003908161233f5790505b509050600060015b600160009054906101000a90046001600160a01b03166001600160a01b031663f08b82e66040518163ffffffff1660e01b8152600401602060405180830381865afa1580156123e8573d6000803e3d6000fd5b505050506040513d601f19601f8201168201806040525081019061240c9190613535565b8111610c175760008181526003602052604090206004015460ff16156124ab57600081815260046020818152604092839020835160a0810185528154815260018201549281019290925260028101549382019390935260038301546001600160a01b03166060820152910154608082015283518490849081106124915761249161354e565b602002602001018190525081806124a79061357d565b9250505b806124b58161357d565b915050612395565b600154604080517ff08b82e600000000000000000000000000000000000000000000000000000000815290516000926001600160a01b03169163f08b82e69160048083019260209291908290030181865afa158015612520573d6000803e3d6000fd5b505050506040513d601f19601f820116820180604052508101906125449190613535565b61254f9060016135b5565b6001546040517fcd279c7c0000000000000000000000000000000000000000000000000000000081529192506001600160a01b03169063cd279c7c9061259d903390859087906004016135c8565b600060405180830381600087803b1580156125b757600080fd5b505af11580156125cb573d6000803e3d6000fd5b50506040805160a08082018352858252600060208084018281528551808701875283815280830184905285870190815260608087018581528851968701895285875286850186905286890186905286820186905260808088018790528089019788528c875260038087528a882099518a55945160018a01805460ff199081169215159290921790559351805160028b0155860151948901949094555160048801805490931690151517909155935180516005870155918201516006860155818601516007860155928101516008850180547fffffffffffffffffffffffff0000000000000000000000000000000000000000166001600160a01b039092169190911790559091015160099092019190915590513393508492507ffc3e46b20179ee86f15f5ceddb39a3ebf27068747e5c22137848d2e5716366d79190a35050565b6127476040518060a0016040528060008152602001600081526020016000815260200160006001600160a01b03168152602001600081525090565b50600090815260046020818152604092839020835160a0810185528154815260018201549281019290925260028101549382019390935260038301546001600160a01b03166060820152910154608082015290565b6001546040517f6352211e00000000000000000000000000000000000000000000000000000000815260048101839052829133916001600160a01b0390911690636352211e90602401602060405180830381865afa158015612802573d6000803e3d6000fd5b505050506040513d601f19601f820116820180604052508101906128269190613488565b6001600160a01b0316146128a25760405162461bcd60e51b815260206004820152602d60248201527f4361724d61726b6574706c6163653a2063616c6c6572206973206e6f7420746860448201527f6520746f6b656e206f776e6572000000000000000000000000000000000000006064820152608401610753565b600082815260036020526040902060010154829060ff1661292b5760405162461bcd60e51b815260206004820152602160248201527f4361724d61726b6574706c6163653a20636172206973206e6f74206c6973746560448201527f64000000000000000000000000000000000000000000000000000000000000006064820152608401610753565b600083815260036020526040902060040154839060ff16156129b55760405162461bcd60e51b815260206004820152602160248201527f4361724d61726b6574706c6163653a2063617220697320696e2061756374696f60448201527f6e000000000000000000000000000000000000000000000000000000000000006064820152608401610753565b600084815260056020908152604080832083815560019081018490556003808452828520918201805460ff19169055825180840184528581528085018681528a875294829052516002830155925192019190915551339186917f0f4c15ce59d7de7e5f28e713f6b87b13f2899718217795050aa99679372d74609190a350505050565b612a6560405180606001604052806000815260200160006001600160a01b03168152602001600081525090565b6040805160608101825283815260015491517f6352211e00000000000000000000000000000000000000000000000000000000815260048101859052909160208301916001600160a01b0390911690636352211e90602401602060405180830381865afa158015612ada573d6000803e3d6000fd5b505050506040513d601f19601f82011682018060405250810190612afe9190613488565b6001600160a01b031681526000938452600560209081526040909420600101549301929092525090565b6001546040517f6352211e00000000000000000000000000000000000000000000000000000000815260048101849052839133916001600160a01b0390911690636352211e90602401602060405180830381865afa158015612b8e573d6000803e3d6000fd5b505050506040513d601f19601f82011682018060405250810190612bb29190613488565b6001600160a01b031614612c2e5760405162461bcd60e51b815260206004820152602d60248201527f4361724d61726b6574706c6163653a2063616c6c6572206973206e6f7420746860448201527f6520746f6b656e206f776e6572000000000000000000000000000000000000006064820152608401610753565b600083815260036020526040902060010154839060ff1615612cb85760405162461bcd60e51b815260206004820152602560248201527f4361724d61726b6574706c6163653a2063617220697320616c7265616479206c60448201527f69737465640000000000000000000000000000000000000000000000000000006064820152608401610753565b600084815260036020526040902060040154849060ff1615612d425760405162461bcd60e51b815260206004820152602160248201527f4361724d61726b6574706c6163653a2063617220697320696e2061756374696f60448201527f6e000000000000000000000000000000000000000000000000000000000000006064820152608401610753565b60408051808201825286815260208082018781526000898152600583528481209351845590516001808501918255600380855292869020808201805460ff191690921790915593546002850155549201919091559051858152339187917f346237025e4b201cfbdb8011c7afcd8a0cc16c50e910d6ac5645ab7406be429d9101611b7b565b60008060015b600160009054906101000a90046001600160a01b03166001600160a01b031663f08b82e66040518163ffffffff1660e01b8152600401602060405180830381865afa158015612e20573d6000803e3d6000fd5b505050506040513d601f19601f82011682018060405250810190612e449190613535565b8111612e845760008181526003602052604090206001015460ff1615612e725781612e6e8161357d565b9250505b80612e7c8161357d565b915050612dcd565b50919050565b6040518060a0016040528060008152602001600015158152602001612ec2604051806040016040528060008152602001600081525090565b8152602001600015158152602001612f0b6040518060a0016040528060008152602001600081526020016000815260200160006001600160a01b03168152602001600081525090565b905290565b600060208284031215612f2257600080fd5b5035919050565b600061014082019050825182526020830151151560208301526040830151612f5e604084018280518252602090810151910152565b506060830151151560808301526080830151612fb160a08401828051825260208101516020830152604081015160408301526001600160a01b036060820151166060830152608081015160808301525050565b5092915050565b7f4e487b7100000000000000000000000000000000000000000000000000000000600052604160045260246000fd5b600082601f830112612ff857600080fd5b813567ffffffffffffffff8082111561301357613013612fb8565b604051601f83017fffffffffffffffffffffffffffffffffffffffffffffffffffffffffffffffe0908116603f0116810190828211818310171561305957613059612fb8565b8160405283815286602085880101111561307257600080fd5b836020870160208301376000602085830101528094505050505092915050565b600080604083850312156130a557600080fd5b82359150602083013567ffffffffffffffff8111156130c357600080fd5b6130cf85828601612fe7565b9150509250929050565b6020808252825182820181905260009190848201906040850190845b8181101561313857613125838551805182526020808201516001600160a01b031690830152604090810151910152565b92840192606092909201916001016130f5565b50909695505050505050565b6001600160a01b038116811461315957600080fd5b50565b60006020828403121561316e57600080fd5b813561317981613144565b9392505050565b6020808252825182820181905260009190848201906040850190845b818110156131385783518352928401929184019160010161319c565b6000806000606084860312156131cd57600080fd5b505081359360208301359350604090920135919050565b600080604083850312156131f757600080fd5b50508035926020909101359150565b6020808252825182820181905260009190848201906040850190845b81811015613138576132698385518051825260208101516020830152604081015160408301526001600160a01b036060820151166060830152608081015160808301525050565b9284019260a09290920191600101613222565b60006020828403121561328e57600080fd5b813567ffffffffffffffff8111156132a557600080fd5b61077784828501612fe7565b60a081016132f382848051825260208101516020830152604081015160408301526001600160a01b036060820151166060830152608081015160808301525050565b92915050565b85815284151560208201526101408101613320604083018680518252602090810151910152565b831515608083810191909152835160a0840152602084015160c0840152604084015160e084015260608401516001600160a01b03166101008401528301516101208301529695505050505050565b815181526020808301516001600160a01b03169082015260408083015190820152606081016132f3565b805169ffffffffffffffffffff811681146133b257600080fd5b919050565b600080600080600060a086880312156133cf57600080fd5b6133d886613398565b94506020860151935060408601519250606086015191506133fb60808701613398565b90509295509295909350565b7f4e487b7100000000000000000000000000000000000000000000000000000000600052601160045260246000fd5b80820281158282048414176132f3576132f3613407565b600082613483577f4e487b7100000000000000000000000000000000000000000000000000000000600052601260045260246000fd5b500490565b60006020828403121561349a57600080fd5b815161317981613144565b6000815180845260005b818110156134cb576020818501810151868301820152016134af565b5060006020828601015260207fffffffffffffffffffffffffffffffffffffffffffffffffffffffffffffffe0601f83011685010191505092915050565b82815260406020820152600061077760408301846134a5565b60208152600061317960208301846134a5565b60006020828403121561354757600080fd5b5051919050565b7f4e487b7100000000000000000000000000000000000000000000000000000000600052603260045260246000fd5b60007fffffffffffffffffffffffffffffffffffffffffffffffffffffffffffffffff82036135ae576135ae613407565b5060010190565b808201808211156132f3576132f3613407565b6001600160a01b03841681528260208201526060604082015260006135f060608301846134a5565b9594505050505056fea264697066735822122014ffbfd86682f4640baae8127de4ad77305b3f919f118a307b905ceb30ab983664736f6c63430008180033",
  "linkReferences": {},
  "deployedLinkReferences": {}
}