{
  "address": "0xe7f1725E7734CE288F8367e1Bb143E90bb3F0512",
  "_format": "hh-sol-artifact-1",
  "contractName": "CarMarketplace",
  "sourceName": "contracts/CarMarketplace.sol",
  "abi": [
    {
      "inputs": [
        {
          "internalType": "address",
          "name": "_carToken",
          "type": "address"
        }
      ],
      "stateMutability": "nonpayable",
      "type": "constructor"
    },
    {
      "inputs": [],
      "name": "ReentrancyGuardReentrantCall",
      "type": "error"
    },
    {
      "anonymous": false,
      "inputs": [
        {
          "indexed": true,
          "internalType": "uint256",
          "name": "tokenId",
          "type": "uint256"
        },
        {
          "indexed": true,
          "internalType": "address",
          "name": "seller",
          "type": "address"
        },
        {
          "indexed": false,
          "internalType": "uint256",
          "name": "startPrice",
          "type": "uint256"
        },
        {
          "indexed": false,
          "internalType": "uint256",
          "name": "auctionEndTime",
          "type": "uint256"
        }
      ],
      "name": "AuctionCreated",
      "type": "event"
    },
    {
      "anonymous": false,
      "inputs": [
        {
          "indexed": true,
          "internalType": "uint256",
          "name": "tokenId",
          "type": "uint256"
        },
        {
          "indexed": true,
          "internalType": "address",
          "name": "winner",
          "type": "address"
        },
        {
          "indexed": false,
          "internalType": "uint256",
          "name": "price",
          "type": "uint256"
        }
      ],
      "name": "AuctionEnded",
      "type": "event"
    },
    {
      "anonymous": false,
      "inputs": [
        {
          "indexed": true,
          "internalType": "uint256",
          "name": "tokenId",
          "type": "uint256"
        },
        {
          "indexed": true,
          "internalType": "address",
          "name": "bidder",
          "type": "address"
        },
        {
          "indexed": false,
          "internalType": "uint256",
          "name": "amount",
          "type": "uint256"
        }
      ],
      "name": "BidPlaced",
      "type": "event"
    },
    {
      "anonymous": false,
      "inputs": [
        {
          "indexed": true,
          "internalType": "uint256",
          "name": "tokenId",
          "type": "uint256"
        },
        {
          "indexed": true,
          "internalType": "address",
          "name": "bidder",
          "type": "address"
        },
        {
          "indexed": false,
          "internalType": "uint256",
          "name": "amount",
          "type": "uint256"
        }
      ],
      "name": "BidWithdrawn",
      "type": "event"
    },
    {
      "anonymous": false,
      "inputs": [
        {
          "indexed": true,
          "internalType": "uint256",
          "name": "tokenId",
          "type": "uint256"
        },
        {
          "indexed": true,
          "internalType": "address",
          "name": "owner",
          "type": "address"
        }
      ],
      "name": "CarCreated",
      "type": "event"
    },
    {
      "anonymous": false,
      "inputs": [
        {
          "indexed": true,
          "internalType": "uint256",
          "name": "tokenId",
          "type": "uint256"
        },
        {
          "indexed": true,
          "internalType": "address",
          "name": "seller",
          "type": "address"
        },
        {
          "indexed": false,
          "internalType": "uint256",
          "name": "price",
          "type": "uint256"
        }
      ],
      "name": "CarListed",
      "type": "event"
    },
    {
      "anonymous": false,
      "inputs": [
        {
          "indexed": true,
          "internalType": "uint256",
          "name": "tokenId",
          "type": "uint256"
        },
        {
          "indexed": false,
          "internalType": "uint256",
          "name": "price",
          "type": "uint256"
        }
      ],
      "name": "CarPriceUpdated",
      "type": "event"
    },
    {
      "anonymous": false,
      "inputs": [
        {
          "indexed": true,
          "internalType": "uint256",
          "name": "tokenId",
          "type": "uint256"
        },
        {
          "indexed": true,
          "internalType": "address",
          "name": "seller",
          "type": "address"
        },
        {
          "indexed": true,
          "internalType": "address",
          "name": "buyer",
          "type": "address"
        },
        {
          "indexed": false,
          "internalType": "uint256",
          "name": "price",
          "type": "uint256"
        }
      ],
      "name": "CarSold",
      "type": "event"
    },
    {
      "anonymous": false,
      "inputs": [
        {
          "indexed": true,
          "internalType": "uint256",
          "name": "tokenId",
          "type": "uint256"
        },
        {
          "indexed": false,
          "internalType": "string",
          "name": "uri",
          "type": "string"
        }
      ],
      "name": "CarURIUpdated",
      "type": "event"
    },
    {
      "anonymous": false,
      "inputs": [
        {
          "indexed": true,
          "internalType": "uint256",
          "name": "tokenId",
          "type": "uint256"
        },
        {
          "indexed": true,
          "internalType": "address",
          "name": "seller",
          "type": "address"
        }
      ],
      "name": "CarUnlisted",
      "type": "event"
    },
    {
      "inputs": [
        {
          "internalType": "uint256",
          "name": "",
          "type": "uint256"
        }
      ],
      "name": "auctions",
      "outputs": [
        {
          "internalType": "uint256",
          "name": "tokenId",
          "type": "uint256"
        },
        {
          "internalType": "uint256",
          "name": "startPrice",
          "type": "uint256"
        },
        {
          "internalType": "uint256",
          "name": "highestBid",
          "type": "uint256"
        },
        {
          "internalType": "address payable",
          "name": "highestBidder",
          "type": "address"
        },
        {
          "internalType": "uint256",
          "name": "auctionEndTime",
          "type": "uint256"
        }
      ],
      "stateMutability": "view",
      "type": "function"
    },
    {
      "inputs": [
        {
          "internalType": "uint256",
          "name": "_tokenId",
          "type": "uint256"
        }
      ],
      "name": "buyCar",
      "outputs": [],
      "stateMutability": "payable",
      "type": "function"
    },
    {
      "inputs": [],
      "name": "carToken",
      "outputs": [
        {
          "internalType": "contract CarToken",
          "name": "",
          "type": "address"
        }
      ],
      "stateMutability": "view",
      "type": "function"
    },
    {
      "inputs": [
        {
          "internalType": "uint256",
          "name": "",
          "type": "uint256"
        }
      ],
      "name": "cars",
      "outputs": [
        {
          "internalType": "uint256",
          "name": "tokenId",
          "type": "uint256"
        },
        {
          "internalType": "bool",
          "name": "isListed",
          "type": "bool"
        },
        {
          "components": [
            {
              "internalType": "uint256",
              "name": "tokenId",
              "type": "uint256"
            },
            {
              "internalType": "uint256",
              "name": "price",
              "type": "uint256"
            }
          ],
          "internalType": "struct CarMarketplace.Listing",
          "name": "listing",
          "type": "tuple"
        },
        {
          "internalType": "bool",
          "name": "isInAuction",
          "type": "bool"
        },
        {
          "components": [
            {
              "internalType": "uint256",
              "name": "tokenId",
              "type": "uint256"
            },
            {
              "internalType": "uint256",
              "name": "startPrice",
              "type": "uint256"
            },
            {
              "internalType": "uint256",
              "name": "highestBid",
              "type": "uint256"
            },
            {
              "internalType": "address payable",
              "name": "highestBidder",
              "type": "address"
            },
            {
              "internalType": "uint256",
              "name": "auctionEndTime",
              "type": "uint256"
            }
          ],
          "internalType": "struct CarMarketplace.Auction",
          "name": "auction",
          "type": "tuple"
        }
      ],
      "stateMutability": "view",
      "type": "function"
    },
    {
      "inputs": [
        {
          "internalType": "string",
          "name": "uri",
          "type": "string"
        }
      ],
      "name": "createCar",
      "outputs": [],
      "stateMutability": "nonpayable",
      "type": "function"
    },
    {
      "inputs": [
        {
          "internalType": "uint256",
          "name": "_tokenId",
          "type": "uint256"
        }
      ],
      "name": "endAuction",
      "outputs": [],
      "stateMutability": "nonpayable",
      "type": "function"
    },
    {
      "inputs": [],
      "name": "getActiveAuctions",
      "outputs": [
        {
          "components": [
            {
              "internalType": "uint256",
              "name": "tokenId",
              "type": "uint256"
            },
            {
              "internalType": "uint256",
              "name": "startPrice",
              "type": "uint256"
            },
            {
              "internalType": "uint256",
              "name": "highestBid",
              "type": "uint256"
            },
            {
              "internalType": "address payable",
              "name": "highestBidder",
              "type": "address"
            },
            {
              "internalType": "uint256",
              "name": "auctionEndTime",
              "type": "uint256"
            }
          ],
          "internalType": "struct CarMarketplace.Auction[]",
          "name": "",
          "type": "tuple[]"
        }
      ],
      "stateMutability": "view",
      "type": "function"
    },
    {
      "inputs": [
        {
          "internalType": "uint256",
          "name": "_tokenId",
          "type": "uint256"
        }
      ],
      "name": "getAuctionDetails",
      "outputs": [
        {
          "components": [
            {
              "internalType": "uint256",
              "name": "tokenId",
              "type": "uint256"
            },
            {
              "internalType": "uint256",
              "name": "startPrice",
              "type": "uint256"
            },
            {
              "internalType": "uint256",
              "name": "highestBid",
              "type": "uint256"
            },
            {
              "internalType": "address payable",
              "name": "highestBidder",
              "type": "address"
            },
            {
              "internalType": "uint256",
              "name": "auctionEndTime",
              "type": "uint256"
            }
          ],
          "internalType": "struct CarMarketplace.Auction",
          "name": "",
          "type": "tuple"
        }
      ],
      "stateMutability": "view",
      "type": "function"
    },
    {
      "inputs": [
        {
          "internalType": "uint256",
          "name": "_tokenId",
          "type": "uint256"
        }
      ],
      "name": "getAuctionEndTime",
      "outputs": [
        {
          "internalType": "uint256",
          "name": "",
          "type": "uint256"
        }
      ],
      "stateMutability": "view",
      "type": "function"
    },
    {
      "inputs": [
        {
          "internalType": "uint256",
          "name": "_tokenId",
          "type": "uint256"
        }
      ],
      "name": "getCarDetails",
      "outputs": [
        {
          "components": [
            {
              "internalType": "uint256",
              "name": "tokenId",
              "type": "uint256"
            },
            {
              "internalType": "bool",
              "name": "isListed",
              "type": "bool"
            },
            {
              "components": [
                {
                  "internalType": "uint256",
                  "name": "tokenId",
                  "type": "uint256"
                },
                {
                  "internalType": "uint256",
                  "name": "price",
                  "type": "uint256"
                }
              ],
              "internalType": "struct CarMarketplace.Listing",
              "name": "listing",
              "type": "tuple"
            },
            {
              "internalType": "bool",
              "name": "isInAuction",
              "type": "bool"
            },
            {
              "components": [
                {
                  "internalType": "uint256",
                  "name": "tokenId",
                  "type": "uint256"
                },
                {
                  "internalType": "uint256",
                  "name": "startPrice",
                  "type": "uint256"
                },
                {
                  "internalType": "uint256",
                  "name": "highestBid",
                  "type": "uint256"
                },
                {
                  "internalType": "address payable",
                  "name": "highestBidder",
                  "type": "address"
                },
                {
                  "internalType": "uint256",
                  "name": "auctionEndTime",
                  "type": "uint256"
                }
              ],
              "internalType": "struct CarMarketplace.Auction",
              "name": "auction",
              "type": "tuple"
            }
          ],
          "internalType": "struct CarMarketplace.Car",
          "name": "",
          "type": "tuple"
        }
      ],
      "stateMutability": "view",
      "type": "function"
    },
    {
      "inputs": [
        {
          "internalType": "address",
          "name": "owner",
          "type": "address"
        }
      ],
      "name": "getCarsOwnedBy",
      "outputs": [
        {
          "internalType": "uint256[]",
          "name": "",
          "type": "uint256[]"
        }
      ],
      "stateMutability": "view",
      "type": "function"
    },
    {
      "inputs": [
        {
          "internalType": "uint256",
          "name": "_tokenId",
          "type": "uint256"
        }
      ],
      "name": "getHighestBidderAndAmount",
      "outputs": [
        {
          "internalType": "address",
          "name": "",
          "type": "address"
        },
        {
          "internalType": "uint256",
          "name": "",
          "type": "uint256"
        }
      ],
      "stateMutability": "view",
      "type": "function"
    },
    {
      "inputs": [],
      "name": "getListedCars",
      "outputs": [
        {
          "components": [
            {
              "internalType": "uint256",
              "name": "tokenId",
              "type": "uint256"
            },
            {
              "internalType": "address",
              "name": "seller",
              "type": "address"
            },
            {
              "internalType": "uint256",
              "name": "price",
              "type": "uint256"
            }
          ],
          "internalType": "struct CarMarketplace.ListingDetails[]",
          "name": "",
          "type": "tuple[]"
        }
      ],
      "stateMutability": "view",
      "type": "function"
    },
    {
      "inputs": [
        {
          "internalType": "uint256",
          "name": "_tokenId",
          "type": "uint256"
        }
      ],
      "name": "getListingDetails",
      "outputs": [
        {
          "components": [
            {
              "internalType": "uint256",
              "name": "tokenId",
              "type": "uint256"
            },
            {
              "internalType": "address",
              "name": "seller",
              "type": "address"
            },
            {
              "internalType": "uint256",
              "name": "price",
              "type": "uint256"
            }
          ],
          "internalType": "struct CarMarketplace.ListingDetails",
          "name": "",
          "type": "tuple"
        }
      ],
      "stateMutability": "view",
      "type": "function"
    },
    {
      "inputs": [
        {
          "internalType": "uint256",
          "name": "_tokenId",
          "type": "uint256"
        }
      ],
      "name": "isTokenInAuction",
      "outputs": [
        {
          "internalType": "bool",
          "name": "",
          "type": "bool"
        }
      ],
      "stateMutability": "view",
      "type": "function"
    },
    {
      "inputs": [
        {
          "internalType": "uint256",
          "name": "_tokenId",
          "type": "uint256"
        }
      ],
      "name": "isTokenListed",
      "outputs": [
        {
          "internalType": "bool",
          "name": "",
          "type": "bool"
        }
      ],
      "stateMutability": "view",
      "type": "function"
    },
    {
      "inputs": [
        {
          "internalType": "uint256",
          "name": "_tokenId",
          "type": "uint256"
        },
        {
          "internalType": "uint256",
          "name": "_price",
          "type": "uint256"
        }
      ],
      "name": "listCar",
      "outputs": [],
      "stateMutability": "nonpayable",
      "type": "function"
    },
    {
      "inputs": [
        {
          "internalType": "uint256",
          "name": "",
          "type": "uint256"
        }
      ],
      "name": "listings",
      "outputs": [
        {
          "internalType": "uint256",
          "name": "tokenId",
          "type": "uint256"
        },
        {
          "internalType": "uint256",
          "name": "price",
          "type": "uint256"
        }
      ],
      "stateMutability": "view",
      "type": "function"
    },
    {
      "inputs": [
        {
          "internalType": "uint256",
          "name": "_tokenId",
          "type": "uint256"
        }
      ],
      "name": "placeBid",
      "outputs": [],
      "stateMutability": "payable",
      "type": "function"
    },
    {
      "inputs": [
        {
          "internalType": "uint256",
          "name": "_tokenId",
          "type": "uint256"
        },
        {
          "internalType": "uint256",
          "name": "_startPrice",
          "type": "uint256"
        },
        {
          "internalType": "uint256",
          "name": "_duration",
          "type": "uint256"
        }
      ],
      "name": "startAuction",
      "outputs": [],
      "stateMutability": "nonpayable",
      "type": "function"
    },
    {
      "inputs": [
        {
          "internalType": "uint256",
          "name": "_tokenId",
          "type": "uint256"
        }
      ],
      "name": "unlistCar",
      "outputs": [],
      "stateMutability": "nonpayable",
      "type": "function"
    },
    {
      "inputs": [
        {
          "internalType": "uint256",
          "name": "_tokenId",
          "type": "uint256"
        },
        {
          "internalType": "uint256",
          "name": "_price",
          "type": "uint256"
        }
      ],
      "name": "updateCarPrice",
      "outputs": [],
      "stateMutability": "nonpayable",
      "type": "function"
    },
    {
      "inputs": [
        {
          "internalType": "uint256",
          "name": "_tokenId",
          "type": "uint256"
        },
        {
          "internalType": "string",
          "name": "_uri",
          "type": "string"
        }
      ],
      "name": "updateCarURI",
      "outputs": [],
      "stateMutability": "nonpayable",
      "type": "function"
    }
  ],
  "bytecode": "0x60806040523480156200001157600080fd5b50604051620035103803806200351083398101604081905262000034916200005f565b6001600081905580546001600160a01b0319166001600160a01b039290921691909117905562000091565b6000602082840312156200007257600080fd5b81516001600160a01b03811681146200008a57600080fd5b9392505050565b61346f80620000a16000396000f3fe6080604052600436106101805760003560e01c80639b83cddc116100d6578063ede6fbf51161007f578063f7746e3611610059578063f7746e3614610561578063fb05da2e14610614578063fe02c8a41461064157600080fd5b8063ede6fbf5146104f4578063f20e5e3514610514578063f504fa641461054157600080fd5b8063cf44b5d5116100b0578063cf44b5d514610451578063d530bf3314610473578063de74e57b146104ab57600080fd5b80639b83cddc146103de578063b1261ea814610411578063b9a2de3a1461043157600080fd5b80635b4074401161013857806391e078bb1161011257806391e078bb1461036d578063930e79f11461038d5780639979ef45146103cb57600080fd5b80635b407440146102ea5780636c231060146103175780637c17855d1461032a57600080fd5b8063526167ee11610169578063526167ee146101dd57806353b2643714610240578063571a26a01461026257600080fd5b8063472ec4541461018557806347789627146101bb575b600080fd5b34801561019157600080fd5b506101a56101a0366004612e09565b610661565b6040516101b29190612e22565b60405180910390f35b3480156101c757600080fd5b506101db6101d6366004612f8b565b610717565b005b3480156101e957600080fd5b506102216101f8366004612e09565b6000908152600360208190526040909120908101546002909101546001600160a01b0390911691565b604080516001600160a01b0390931683526020830191909152016101b2565b34801561024c57600080fd5b506102556108dc565b6040516101b29190612fd2565b34801561026e57600080fd5b506102b961027d366004612e09565b6003602081905260009182526040909120805460018201546002830154938301546004909301549193909290916001600160a01b039091169085565b604080519586526020860194909452928401919091526001600160a01b03166060830152608082015260a0016101b2565b3480156102f657600080fd5b5061030a610305366004613055565b610b07565b6040516101b29190613079565b6101db610325366004612e09565b610d47565b34801561033657600080fd5b5061035d610345366004612e09565b60009081526002602052604090206004015460ff1690565b60405190151581526020016101b2565b34801561037957600080fd5b506101db6103883660046130b1565b611154565b34801561039957600080fd5b506103bd6103a8366004612e09565b60009081526003602052604090206004015490565b6040519081526020016101b2565b6101db6103d9366004612e09565b6115ae565b3480156103ea57600080fd5b5061035d6103f9366004612e09565b60009081526002602052604090206001015460ff1690565b34801561041d57600080fd5b506101db61042c3660046130dd565b611a6b565b34801561043d57600080fd5b506101db61044c366004612e09565b611c6d565b34801561045d57600080fd5b50610466612134565b6040516101b291906130ff565b34801561047f57600080fd5b50600154610493906001600160a01b031681565b6040516001600160a01b0390911681526020016101b2565b3480156104b757600080fd5b506104df6104c6366004612e09565b6004602052600090815260409020805460019091015482565b604080519283526020830191909152016101b2565b34801561050057600080fd5b506101db61050f366004613175565b6123ac565b34801561052057600080fd5b5061053461052f366004612e09565b6125fc565b6040516101b291906131b2565b34801561054d57600080fd5b506101db61055c366004612e09565b61268e565b34801561056d57600080fd5b5061060361057c366004612e09565b60026020818152600092835260409283902080546001820154855180870187529483015485526003830154858501526004830154865160a0810188526005850154815260068501549581019590955260078401549685019690965260088301546001600160a01b0316606085015260099092015460808401529360ff918216939291169085565b6040516101b29594939291906131fa565b34801561062057600080fd5b5061063461062f366004612e09565b61292c565b6040516101b2919061326f565b34801561064d57600080fd5b506101db61065c3660046130dd565b612a1c565b610669612d83565b50600090815260026020818152604092839020835160a0808201865282548252600183015460ff908116151583860152865180880188529584015486526003840154868601528287019590955260048301549094161515606080830191909152855194850186526005830154855260068301549385019390935260078201549484019490945260088101546001600160a01b0316918301919091526009015460808281019190915282015290565b6001546040517f6352211e00000000000000000000000000000000000000000000000000000000815260048101849052839133916001600160a01b0390911690636352211e90602401602060405180830381865afa15801561077d573d6000803e3d6000fd5b505050506040513d601f19601f820116820180604052508101906107a19190613299565b6001600160a01b0316146108225760405162461bcd60e51b815260206004820152602d60248201527f4361724d61726b6574706c6163653a2063616c6c6572206973206e6f7420746860448201527f6520746f6b656e206f776e65720000000000000000000000000000000000000060648201526084015b60405180910390fd5b6001546040517f162094c40000000000000000000000000000000000000000000000000000000081526001600160a01b039091169063162094c49061086d908690869060040161331a565b600060405180830381600087803b15801561088757600080fd5b505af115801561089b573d6000803e3d6000fd5b50505050827fc5a2cca31029450031d3bd3bae967d9dc7ebd1cb4f9ea7bf26b13c6b8d1a2829836040516108cf9190613333565b60405180910390a2505050565b606060006108e8612cc0565b905060008167ffffffffffffffff81111561090557610905612eb1565b60405190808252806020026020018201604052801561096357816020015b61095060405180606001604052806000815260200160006001600160a01b03168152602001600081525090565b8152602001906001900390816109235790505b509050600060015b600160009054906101000a90046001600160a01b03166001600160a01b031663f08b82e66040518163ffffffff1660e01b8152600401602060405180830381865afa1580156109be573d6000803e3d6000fd5b505050506040513d601f19601f820116820180604052508101906109e29190613346565b8111610afe5760008181526002602052604090206001015460ff1615610aec576040805160608101825282815260015491517f6352211e00000000000000000000000000000000000000000000000000000000815260048101849052909160208301916001600160a01b0390911690636352211e90602401602060405180830381865afa158015610a77573d6000803e3d6000fd5b505050506040513d601f19601f82011682018060405250810190610a9b9190613299565b6001600160a01b031681526000838152600460209081526040909120600101549101528351849084908110610ad257610ad261335f565b60200260200101819052508180610ae8906133bd565b9250505b80610af6816133bd565b91505061096b565b50909392505050565b60606000600160009054906101000a90046001600160a01b03166001600160a01b031663f08b82e66040518163ffffffff1660e01b8152600401602060405180830381865afa158015610b5e573d6000803e3d6000fd5b505050506040513d601f19601f82011682018060405250810190610b829190613346565b905060008167ffffffffffffffff811115610b9f57610b9f612eb1565b604051908082528060200260200182016040528015610bc8578160200160208202803683370190505b509050600060015b838111610cab576001546040517f6352211e000000000000000000000000000000000000000000000000000000008152600481018390526001600160a01b03888116921690636352211e90602401602060405180830381865afa158015610c3b573d6000803e3d6000fd5b505050506040513d601f19601f82011682018060405250810190610c5f9190613299565b6001600160a01b031603610c995780838381518110610c8057610c8061335f565b602090810291909101015281610c95816133bd565b9250505b80610ca3816133bd565b915050610bd0565b5060008167ffffffffffffffff811115610cc757610cc7612eb1565b604051908082528060200260200182016040528015610cf0578160200160208202803683370190505b50905060005b82811015610d3d57838181518110610d1057610d1061335f565b6020026020010151828281518110610d2a57610d2a61335f565b6020908102919091010152600101610cf6565b5095945050505050565b6001546040517f6352211e00000000000000000000000000000000000000000000000000000000815260048101839052829133916001600160a01b0390911690636352211e90602401602060405180830381865afa158015610dad573d6000803e3d6000fd5b505050506040513d601f19601f82011682018060405250810190610dd19190613299565b6001600160a01b031603610e4d5760405162461bcd60e51b815260206004820152602960248201527f4361724d61726b6574706c6163653a2063616c6c65722069732074686520746f60448201527f6b656e206f776e657200000000000000000000000000000000000000000000006064820152608401610819565b600082815260026020526040902060010154829060ff16610ed65760405162461bcd60e51b815260206004820152602160248201527f4361724d61726b6574706c6163653a20636172206973206e6f74206c6973746560448201527f64000000000000000000000000000000000000000000000000000000000000006064820152608401610819565b60008381526004602090815260409182902082518084019093528054835260010154908201819052341015610f735760405162461bcd60e51b815260206004820152602260248201527f4361724d61726b6574706c6163653a20696e73756666696369656e742066756e60448201527f64730000000000000000000000000000000000000000000000000000000000006064820152608401610819565b6001546040517f6352211e000000000000000000000000000000000000000000000000000000008152600481018690526000916001600160a01b031690636352211e90602401602060405180830381865afa158015610fd6573d6000803e3d6000fd5b505050506040513d601f19601f82011682018060405250810190610ffa9190613299565b6001546040517f42842e0e0000000000000000000000000000000000000000000000000000000081526001600160a01b038084166004830152336024830152604482018990529293509116906342842e0e90606401600060405180830381600087803b15801561106957600080fd5b505af115801561107d573d6000803e3d6000fd5b50506040516001600160a01b03841692503480156108fc029250906000818181858888f193505050501580156110b7573d6000803e3d6000fd5b50600085815260046020908152604080832083815560019081018490556002808452828520918201805460ff1916905582518084018452858152808501868152958b905281855251908201559251600390930192909255905134815233916001600160a01b0384169188917f8205a71867f7292bcef9e53d4774758d6173b03f63017dec9a03a6664b429dc5910160405180910390a45050505050565b6001546040517f6352211e00000000000000000000000000000000000000000000000000000000815260048101859052849133916001600160a01b0390911690636352211e90602401602060405180830381865afa1580156111ba573d6000803e3d6000fd5b505050506040513d601f19601f820116820180604052508101906111de9190613299565b6001600160a01b03161461125a5760405162461bcd60e51b815260206004820152602d60248201527f4361724d61726b6574706c6163653a2063616c6c6572206973206e6f7420746860448201527f6520746f6b656e206f776e6572000000000000000000000000000000000000006064820152608401610819565b600084815260026020526040902060010154849060ff16156112e45760405162461bcd60e51b815260206004820152602560248201527f4361724d61726b6574706c6163653a2063617220697320616c7265616479206c60448201527f69737465640000000000000000000000000000000000000000000000000000006064820152608401610819565b600085815260026020526040902060040154859060ff161561136e5760405162461bcd60e51b815260206004820152602160248201527f4361724d61726b6574706c6163653a2063617220697320696e2061756374696f60448201527f6e000000000000000000000000000000000000000000000000000000000000006064820152608401610819565b600085116113e45760405162461bcd60e51b815260206004820152603260248201527f4361724d61726b6574706c6163653a207374617274207072696365206d75737460448201527f2062652067726561746572207468616e203000000000000000000000000000006064820152608401610819565b6000841180156113f6575061012c8411155b6114685760405162461bcd60e51b815260206004820152603a60248201527f4361724d61726b6574706c6163653a206475726174696f6e206d75737420626560448201527f206265747765656e203120616e6420333030207365636f6e64730000000000006064820152608401610819565b6040518060a001604052808781526020018681526020016000815260200160006001600160a01b0316815260200185426114a291906133f5565b905260008781526003602081815260408084208551815585830151600180830191825587840151600280850191825560608a015197850180547fffffffffffffffffffffffff00000000000000000000000000000000000000009081166001600160a01b039a8b161782556080909b015160048088019182559290985295909820978801805460ff19169092179091559154600587015554600686015554600785015554600884018054919093169416939093179055905460099091015533867fc9050d42180a61cb0d9ebb8ad118b62fe6eab12cf12ff752c4a0cc7da9ddf6278761158e88426133f5565b6040805192835260208301919091520160405180910390a3505050505050565b6001546040517f6352211e00000000000000000000000000000000000000000000000000000000815260048101839052829133916001600160a01b0390911690636352211e90602401602060405180830381865afa158015611614573d6000803e3d6000fd5b505050506040513d601f19601f820116820180604052508101906116389190613299565b6001600160a01b0316036116b45760405162461bcd60e51b815260206004820152602960248201527f4361724d61726b6574706c6163653a2063616c6c65722069732074686520746f60448201527f6b656e206f776e657200000000000000000000000000000000000000000000006064820152608401610819565b600082815260026020526040902060040154829060ff1661173d5760405162461bcd60e51b815260206004820152602560248201527f4361724d61726b6574706c6163653a20636172206973206e6f7420696e20617560448201527f6374696f6e0000000000000000000000000000000000000000000000000000006064820152608401610819565b600083815260036020526040902060040154839042106117c55760405162461bcd60e51b815260206004820152602560248201527f4361724d61726b6574706c6163653a2061756374696f6e206973206e6f74206160448201527f63746976650000000000000000000000000000000000000000000000000000006064820152608401610819565b600084815260036020818152604092839020835160a081018552815481526001820154928101839052600282015494810194909452918201546001600160a01b031660608401526004909101546080830152341161188b5760405162461bcd60e51b815260206004820152603760248201527f4361724d61726b6574706c6163653a20626964206d757374206265206869676860448201527f6572207468616e207468652073746172742070726963650000000000000000006064820152608401610819565b806040015134116119045760405162461bcd60e51b815260206004820152603f60248201527f4361724d61726b6574706c6163653a20626964206d757374206265206869676860448201527f6572207468616e207468652063757272656e74206869676865737420626964006064820152608401610819565b60608101516001600160a01b0316156119ea57600081606001516001600160a01b0316826040015160405160006040518083038185875af1925050503d806000811461196c576040519150601f19603f3d011682016040523d82523d6000602084013e611971565b606091505b50509050806119e85760405162461bcd60e51b815260206004820152602b60248201527f4361724d61726b6574706c6163653a206661696c656420746f2073656e64207060448201527f726576696f7573206269640000000000000000000000000000000000000000006064820152608401610819565b505b6000858152600360208181526040928390203460028201819055920180547fffffffffffffffffffffffff00000000000000000000000000000000000000001633908117909155925191825287917f0e54eff26401bf69b81b26f60bd85ef47f5d85275c1d268d84f68d6897431c4791015b60405180910390a35050505050565b6001546040517f6352211e00000000000000000000000000000000000000000000000000000000815260048101849052839133916001600160a01b0390911690636352211e90602401602060405180830381865afa158015611ad1573d6000803e3d6000fd5b505050506040513d601f19601f82011682018060405250810190611af59190613299565b6001600160a01b031614611b715760405162461bcd60e51b815260206004820152602d60248201527f4361724d61726b6574706c6163653a2063616c6c6572206973206e6f7420746860448201527f6520746f6b656e206f776e6572000000000000000000000000000000000000006064820152608401610819565b600083815260026020526040902060010154839060ff16611bfa5760405162461bcd60e51b815260206004820152602160248201527f4361724d61726b6574706c6163653a20636172206973206e6f74206c6973746560448201527f64000000000000000000000000000000000000000000000000000000000000006064820152608401610819565b6000848152600460209081526040808320600181018781556002938490529382902090549281019290925591546003909101555184907fd11cbbf15d6017bc3df85488c192e97ea0fd945f42a784c51384e2280e5a0d5f90611c5f9086815260200190565b60405180910390a250505050565b6001546040517f6352211e00000000000000000000000000000000000000000000000000000000815260048101839052829133916001600160a01b0390911690636352211e90602401602060405180830381865afa158015611cd3573d6000803e3d6000fd5b505050506040513d601f19601f82011682018060405250810190611cf79190613299565b6001600160a01b031614611d735760405162461bcd60e51b815260206004820152602d60248201527f4361724d61726b6574706c6163653a2063616c6c6572206973206e6f7420746860448201527f6520746f6b656e206f776e6572000000000000000000000000000000000000006064820152608401610819565b600082815260026020526040902060040154829060ff16611dfc5760405162461bcd60e51b815260206004820152602560248201527f4361724d61726b6574706c6163653a20636172206973206e6f7420696e20617560448201527f6374696f6e0000000000000000000000000000000000000000000000000000006064820152608401610819565b600083815260036020818152604092839020835160a08101855281548152600182015492810192909252600281015493820193909352908201546001600160a01b0316606082015260049091015460808201819052421015611ec65760405162461bcd60e51b815260206004820152602960248201527f4361724d61726b6574706c6163653a2061756374696f6e20686173206e6f742060448201527f656e6465642079657400000000000000000000000000000000000000000000006064820152608401610819565b60608101516001600160a01b0316156120255760015460608201516040517f42842e0e0000000000000000000000000000000000000000000000000000000081523360048201526001600160a01b039182166024820152604481018790529116906342842e0e90606401600060405180830381600087803b158015611f4a57600080fd5b505af1158015611f5e573d6000803e3d6000fd5b50505050604081810151905160009133918381818185875af1925050503d8060008114611fa7576040519150601f19603f3d011682016040523d82523d6000602084013e611fac565b606091505b50509050806120235760405162461bcd60e51b815260206004820152602660248201527f4361724d61726b6574706c6163653a206661696c656420746f2073656e64207060448201527f61796d656e7400000000000000000000000000000000000000000000000000006064820152608401610819565b505b600084815260036020818152604080842084815560018101859055600280820186905593810180547fffffffffffffffffffffffff00000000000000000000000000000000000000009081169091556004918201869055848452828620918201805460ff19169055825160a08101845286815280850187815281850188815260608084018a8152608085018b81529a8f9052988852925160058601559051600685015551600784015594516008830180549092166001600160a01b03918216179091559451600990910155918401518483015192519283529092169186917fd2aa34a4fdbbc6dff6a3e56f46e0f3ae2a31d7785ff3487aa5c95c642acea501910160405180910390a350505050565b6060600060015b600160009054906101000a90046001600160a01b03166001600160a01b031663f08b82e66040518163ffffffff1660e01b8152600401602060405180830381865afa15801561218e573d6000803e3d6000fd5b505050506040513d601f19601f820116820180604052508101906121b29190613346565b81116121f25760008181526002602052604090206004015460ff16156121e057816121dc816133bd565b9250505b806121ea816133bd565b91505061213b565b5060008167ffffffffffffffff81111561220e5761220e612eb1565b60405190808252806020026020018201604052801561227a57816020015b6122676040518060a0016040528060008152602001600081526020016000815260200160006001600160a01b03168152602001600081525090565b81526020019060019003908161222c5790505b509050600060015b600160009054906101000a90046001600160a01b03166001600160a01b031663f08b82e66040518163ffffffff1660e01b8152600401602060405180830381865afa1580156122d5573d6000803e3d6000fd5b505050506040513d601f19601f820116820180604052508101906122f99190613346565b8111610afe5760008181526002602052604090206004015460ff161561239a57600081815260036020818152604092839020835160a08101855281548152600182015492810192909252600281015493820193909352908201546001600160a01b03166060820152600490910154608082015283518490849081106123805761238061335f565b60200260200101819052508180612396906133bd565b9250505b806123a4816133bd565b915050612282565b600154604080517ff08b82e600000000000000000000000000000000000000000000000000000000815290516000926001600160a01b03169163f08b82e69160048083019260209291908290030181865afa15801561240f573d6000803e3d6000fd5b505050506040513d601f19601f820116820180604052508101906124339190613346565b61243e9060016133f5565b6001546040517fcd279c7c0000000000000000000000000000000000000000000000000000000081529192506001600160a01b03169063cd279c7c9061248c90339085908790600401613408565b600060405180830381600087803b1580156124a657600080fd5b505af11580156124ba573d6000803e3d6000fd5b50506040805160a08082018352858252600060208084018281528551808701875283815280830184905285870190815260608087018581528851968701895285875286850186905286890186905286820186905260808088018790528089019788528c875260028087528a882099518a55945160018a01805460ff1990811692151592909217905593518051958a01959095559385015160038901555160048801805490931690151517909155935180516005870155918201516006860155818601516007860155928101516008850180547fffffffffffffffffffffffff0000000000000000000000000000000000000000166001600160a01b039092169190911790559091015160099092019190915590513393508492507ffc3e46b20179ee86f15f5ceddb39a3ebf27068747e5c22137848d2e5716366d79190a35050565b6126376040518060a0016040528060008152602001600081526020016000815260200160006001600160a01b03168152602001600081525090565b50600090815260036020818152604092839020835160a08101855281548152600182015492810192909252600281015493820193909352908201546001600160a01b03166060820152600490910154608082015290565b6001546040517f6352211e00000000000000000000000000000000000000000000000000000000815260048101839052829133916001600160a01b0390911690636352211e90602401602060405180830381865afa1580156126f4573d6000803e3d6000fd5b505050506040513d601f19601f820116820180604052508101906127189190613299565b6001600160a01b0316146127945760405162461bcd60e51b815260206004820152602d60248201527f4361724d61726b6574706c6163653a2063616c6c6572206973206e6f7420746860448201527f6520746f6b656e206f776e6572000000000000000000000000000000000000006064820152608401610819565b600082815260026020526040902060010154829060ff1661281d5760405162461bcd60e51b815260206004820152602160248201527f4361724d61726b6574706c6163653a20636172206973206e6f74206c6973746560448201527f64000000000000000000000000000000000000000000000000000000000000006064820152608401610819565b600083815260026020526040902060040154839060ff16156128a75760405162461bcd60e51b815260206004820152602160248201527f4361724d61726b6574706c6163653a2063617220697320696e2061756374696f60448201527f6e000000000000000000000000000000000000000000000000000000000000006064820152608401610819565b600084815260046020908152604080832083815560019081018490556002808452828520918201805460ff19169055825180840184528581528085018681528a8752948290525190820155915160039092019190915551339186917f0f4c15ce59d7de7e5f28e713f6b87b13f2899718217795050aa99679372d74609190a350505050565b61295960405180606001604052806000815260200160006001600160a01b03168152602001600081525090565b6040805160608101825283815260015491517f6352211e00000000000000000000000000000000000000000000000000000000815260048101859052909160208301916001600160a01b0390911690636352211e90602401602060405180830381865afa1580156129ce573d6000803e3d6000fd5b505050506040513d601f19601f820116820180604052508101906129f29190613299565b6001600160a01b031681526000938452600460209081526040909420600101549301929092525090565b6001546040517f6352211e00000000000000000000000000000000000000000000000000000000815260048101849052839133916001600160a01b0390911690636352211e90602401602060405180830381865afa158015612a82573d6000803e3d6000fd5b505050506040513d601f19601f82011682018060405250810190612aa69190613299565b6001600160a01b031614612b225760405162461bcd60e51b815260206004820152602d60248201527f4361724d61726b6574706c6163653a2063616c6c6572206973206e6f7420746860448201527f6520746f6b656e206f776e6572000000000000000000000000000000000000006064820152608401610819565b600083815260026020526040902060010154839060ff1615612bac5760405162461bcd60e51b815260206004820152602560248201527f4361724d61726b6574706c6163653a2063617220697320616c7265616479206c60448201527f69737465640000000000000000000000000000000000000000000000000000006064820152608401610819565b600084815260026020526040902060040154849060ff1615612c365760405162461bcd60e51b815260206004820152602160248201527f4361724d61726b6574706c6163653a2063617220697320696e2061756374696f60448201527f6e000000000000000000000000000000000000000000000000000000000000006064820152608401610819565b60408051808201825286815260208082018781526000898152600483528481209351845590516001808501918255600280855292869020808201805460ff1916909217909155935491840191909155546003909201919091559051858152339187917f346237025e4b201cfbdb8011c7afcd8a0cc16c50e910d6ac5645ab7406be429d9101611a5c565b60008060015b600160009054906101000a90046001600160a01b03166001600160a01b031663f08b82e66040518163ffffffff1660e01b8152600401602060405180830381865afa158015612d19573d6000803e3d6000fd5b505050506040513d601f19601f82011682018060405250810190612d3d9190613346565b8111612d7d5760008181526002602052604090206001015460ff1615612d6b5781612d67816133bd565b9250505b80612d75816133bd565b915050612cc6565b50919050565b6040518060a0016040528060008152602001600015158152602001612dbb604051806040016040528060008152602001600081525090565b8152602001600015158152602001612e046040518060a0016040528060008152602001600081526020016000815260200160006001600160a01b03168152602001600081525090565b905290565b600060208284031215612e1b57600080fd5b5035919050565b600061014082019050825182526020830151151560208301526040830151612e57604084018280518252602090810151910152565b506060830151151560808301526080830151612eaa60a08401828051825260208101516020830152604081015160408301526001600160a01b036060820151166060830152608081015160808301525050565b5092915050565b7f4e487b7100000000000000000000000000000000000000000000000000000000600052604160045260246000fd5b600082601f830112612ef157600080fd5b813567ffffffffffffffff80821115612f0c57612f0c612eb1565b604051601f83017fffffffffffffffffffffffffffffffffffffffffffffffffffffffffffffffe0908116603f01168101908282118183101715612f5257612f52612eb1565b81604052838152866020858801011115612f6b57600080fd5b836020870160208301376000602085830101528094505050505092915050565b60008060408385031215612f9e57600080fd5b82359150602083013567ffffffffffffffff811115612fbc57600080fd5b612fc885828601612ee0565b9150509250929050565b6020808252825182820181905260009190848201906040850190845b818110156130315761301e838551805182526020808201516001600160a01b031690830152604090810151910152565b9284019260609290920191600101612fee565b50909695505050505050565b6001600160a01b038116811461305257600080fd5b50565b60006020828403121561306757600080fd5b81356130728161303d565b9392505050565b6020808252825182820181905260009190848201906040850190845b8181101561303157835183529284019291840191600101613095565b6000806000606084860312156130c657600080fd5b505081359360208301359350604090920135919050565b600080604083850312156130f057600080fd5b50508035926020909101359150565b6020808252825182820181905260009190848201906040850190845b81811015613031576131628385518051825260208101516020830152604081015160408301526001600160a01b036060820151166060830152608081015160808301525050565b9284019260a0929092019160010161311b565b60006020828403121561318757600080fd5b813567ffffffffffffffff81111561319e57600080fd5b6131aa84828501612ee0565b949350505050565b60a081016131f482848051825260208101516020830152604081015160408301526001600160a01b036060820151166060830152608081015160808301525050565b92915050565b85815284151560208201526101408101613221604083018680518252602090810151910152565b831515608083810191909152835160a0840152602084015160c0840152604084015160e084015260608401516001600160a01b03166101008401528301516101208301529695505050505050565b815181526020808301516001600160a01b03169082015260408083015190820152606081016131f4565b6000602082840312156132ab57600080fd5b81516130728161303d565b6000815180845260005b818110156132dc576020818501810151868301820152016132c0565b5060006020828601015260207fffffffffffffffffffffffffffffffffffffffffffffffffffffffffffffffe0601f83011685010191505092915050565b8281526040602082015260006131aa60408301846132b6565b60208152600061307260208301846132b6565b60006020828403121561335857600080fd5b5051919050565b7f4e487b7100000000000000000000000000000000000000000000000000000000600052603260045260246000fd5b7f4e487b7100000000000000000000000000000000000000000000000000000000600052601160045260246000fd5b60007fffffffffffffffffffffffffffffffffffffffffffffffffffffffffffffffff82036133ee576133ee61338e565b5060010190565b808201808211156131f4576131f461338e565b6001600160a01b038416815282602082015260606040820152600061343060608301846132b6565b9594505050505056fea2646970667358221220349cc1e091a91b2bf6497692963d2a897edd78e660ef3dfa435d539e66f633bf64736f6c63430008180033",
  "linkReferences": {},
  "deployedLinkReferences": {}
}