{
  "address": "0xe7f1725E7734CE288F8367e1Bb143E90bb3F0512",
  "_format": "hh-sol-artifact-1",
  "contractName": "CarMarketplace",
  "sourceName": "contracts/CarMarketplace.sol",
  "abi": [
    {
      "inputs": [
        {
          "internalType": "address",
          "name": "_carTokenAddress",
          "type": "address"
        }
      ],
      "stateMutability": "nonpayable",
      "type": "constructor"
    },
    {
      "inputs": [],
      "name": "ReentrancyGuardReentrantCall",
      "type": "error"
    },
    {
      "anonymous": false,
      "inputs": [
        {
          "indexed": true,
          "internalType": "uint256",
          "name": "tokenId",
          "type": "uint256"
        },
        {
          "indexed": true,
          "internalType": "address",
          "name": "seller",
          "type": "address"
        },
        {
          "indexed": false,
          "internalType": "uint256",
          "name": "price",
          "type": "uint256"
        }
      ],
      "name": "CarListed",
      "type": "event"
    },
    {
      "anonymous": false,
      "inputs": [
        {
          "indexed": true,
          "internalType": "uint256",
          "name": "tokenId",
          "type": "uint256"
        },
        {
          "indexed": true,
          "internalType": "address",
          "name": "seller",
          "type": "address"
        },
        {
          "indexed": true,
          "internalType": "address",
          "name": "buyer",
          "type": "address"
        },
        {
          "indexed": false,
          "internalType": "uint256",
          "name": "price",
          "type": "uint256"
        }
      ],
      "name": "CarSold",
      "type": "event"
    },
    {
      "anonymous": false,
      "inputs": [
        {
          "indexed": true,
          "internalType": "uint256",
          "name": "tokenId",
          "type": "uint256"
        },
        {
          "indexed": true,
          "internalType": "address",
          "name": "seller",
          "type": "address"
        }
      ],
      "name": "ListingCancelled",
      "type": "event"
    },
    {
      "inputs": [
        {
          "internalType": "uint256",
          "name": "tokenId",
          "type": "uint256"
        }
      ],
      "name": "buyCar",
      "outputs": [],
      "stateMutability": "payable",
      "type": "function"
    },
    {
      "inputs": [
        {
          "internalType": "uint256",
          "name": "tokenId",
          "type": "uint256"
        }
      ],
      "name": "cancelListing",
      "outputs": [],
      "stateMutability": "nonpayable",
      "type": "function"
    },
    {
      "inputs": [],
      "name": "carToken",
      "outputs": [
        {
          "internalType": "contract CarToken",
          "name": "",
          "type": "address"
        }
      ],
      "stateMutability": "view",
      "type": "function"
    },
    {
      "inputs": [],
      "name": "getAvailableListings",
      "outputs": [
        {
          "components": [
            {
              "internalType": "uint256",
              "name": "tokenId",
              "type": "uint256"
            },
            {
              "internalType": "address payable",
              "name": "seller",
              "type": "address"
            },
            {
              "internalType": "uint256",
              "name": "price",
              "type": "uint256"
            },
            {
              "internalType": "bool",
              "name": "isActive",
              "type": "bool"
            }
          ],
          "internalType": "struct CarMarketplace.Listing[]",
          "name": "",
          "type": "tuple[]"
        }
      ],
      "stateMutability": "view",
      "type": "function"
    },
    {
      "inputs": [
        {
          "internalType": "address",
          "name": "owner",
          "type": "address"
        }
      ],
      "name": "getCarsOwnedBy",
      "outputs": [
        {
          "internalType": "uint256[]",
          "name": "",
          "type": "uint256[]"
        }
      ],
      "stateMutability": "view",
      "type": "function"
    },
    {
      "inputs": [
        {
          "internalType": "uint256",
          "name": "tokenId",
          "type": "uint256"
        }
      ],
      "name": "getListing",
      "outputs": [
        {
          "components": [
            {
              "internalType": "uint256",
              "name": "tokenId",
              "type": "uint256"
            },
            {
              "internalType": "address payable",
              "name": "seller",
              "type": "address"
            },
            {
              "internalType": "uint256",
              "name": "price",
              "type": "uint256"
            },
            {
              "internalType": "bool",
              "name": "isActive",
              "type": "bool"
            }
          ],
          "internalType": "struct CarMarketplace.Listing",
          "name": "",
          "type": "tuple"
        }
      ],
      "stateMutability": "view",
      "type": "function"
    },
    {
      "inputs": [
        {
          "internalType": "uint256",
          "name": "tokenId",
          "type": "uint256"
        }
      ],
      "name": "isTokenListed",
      "outputs": [
        {
          "internalType": "bool",
          "name": "",
          "type": "bool"
        }
      ],
      "stateMutability": "view",
      "type": "function"
    },
    {
      "inputs": [
        {
          "internalType": "uint256",
          "name": "tokenId",
          "type": "uint256"
        },
        {
          "internalType": "uint256",
          "name": "price",
          "type": "uint256"
        }
      ],
      "name": "listCarForSale",
      "outputs": [],
      "stateMutability": "nonpayable",
      "type": "function"
    },
    {
      "inputs": [
        {
          "internalType": "uint256",
          "name": "",
          "type": "uint256"
        }
      ],
      "name": "listings",
      "outputs": [
        {
          "internalType": "uint256",
          "name": "tokenId",
          "type": "uint256"
        },
        {
          "internalType": "address payable",
          "name": "seller",
          "type": "address"
        },
        {
          "internalType": "uint256",
          "name": "price",
          "type": "uint256"
        },
        {
          "internalType": "bool",
          "name": "isActive",
          "type": "bool"
        }
      ],
      "stateMutability": "view",
      "type": "function"
    }
  ],
  "bytecode": "0x608060405234801561001057600080fd5b5060405161139938038061139983398101604081905261002f91610059565b6001600081905580546001600160a01b0319166001600160a01b0392909216919091179055610089565b60006020828403121561006b57600080fd5b81516001600160a01b038116811461008257600080fd5b9392505050565b611301806100986000396000f3fe6080604052600436106100965760003560e01c80636c23106011610069578063d530bf331161004e578063d530bf3314610252578063de74e57b146102a4578063f68883841461033857600080fd5b80636c231060146101fc5780639b83cddc1461020f57600080fd5b8063107a274a1461009b578063305a67a81461018b5780635b407440146101ad57806368082c35146101da575b600080fd5b3480156100a757600080fd5b506101376100b6366004611098565b60408051608081018252600080825260208201819052918101829052606081019190915250600090815260026020818152604092839020835160808101855281548152600182015473ffffffffffffffffffffffffffffffffffffffff169281019290925291820154928101929092526003015460ff161515606082015290565b60405161018291908151815260208083015173ffffffffffffffffffffffffffffffffffffffff16908201526040808301519082015260609182015115159181019190915260800190565b60405180910390f35b34801561019757600080fd5b506101ab6101a6366004611098565b610358565b005b3480156101b957600080fd5b506101cd6101c83660046110d3565b6105bd565b60405161018291906110f7565b3480156101e657600080fd5b506101ef610831565b604051610182919061113b565b6101ab61020a366004611098565b610aa8565b34801561021b57600080fd5b5061024261022a366004611098565b60009081526002602052604090206003015460ff1690565b6040519015158152602001610182565b34801561025e57600080fd5b5060015461027f9073ffffffffffffffffffffffffffffffffffffffff1681565b60405173ffffffffffffffffffffffffffffffffffffffff9091168152602001610182565b3480156102b057600080fd5b506103016102bf366004611098565b60026020819052600091825260409091208054600182015492820154600390920154909273ffffffffffffffffffffffffffffffffffffffff16919060ff1684565b6040805194855273ffffffffffffffffffffffffffffffffffffffff90931660208501529183015215156060820152608001610182565b34801561034457600080fd5b506101ab6103533660046111b6565b610d87565b6001546040517f6352211e000000000000000000000000000000000000000000000000000000008152600481018390528291339173ffffffffffffffffffffffffffffffffffffffff90911690636352211e90602401602060405180830381865afa1580156103cb573d6000803e3d6000fd5b505050506040513d601f19601f820116820180604052508101906103ef91906111d8565b73ffffffffffffffffffffffffffffffffffffffff1614610496576040517f08c379a0000000000000000000000000000000000000000000000000000000008152602060048201526024808201527f43616c6c6572206973206e6f7420746865206f776e6572206f6620746865207460448201527f6f6b656e0000000000000000000000000000000000000000000000000000000060648201526084015b60405180910390fd5b600082815260026020818152604092839020835160808101855281548152600182015473ffffffffffffffffffffffffffffffffffffffff169281019290925291820154928101929092526003015460ff16151560608201819052610557576040517f08c379a000000000000000000000000000000000000000000000000000000000815260206004820152601860248201527f5468697320636172206973206e6f7420666f722073616c650000000000000000604482015260640161048d565b60008381526002602052604080822060030180547fffffffffffffffffffffffffffffffffffffffffffffffffffffffffffffff0016905551339185917f8e25282255ab31897df2b0456bb993ac7f84d376861aefd84901d2d63a7428a29190a3505050565b60606000600160009054906101000a900473ffffffffffffffffffffffffffffffffffffffff1673ffffffffffffffffffffffffffffffffffffffff1663f08b82e66040518163ffffffff1660e01b8152600401602060405180830381865afa15801561062e573d6000803e3d6000fd5b505050506040513d601f19601f8201168201806040525081019061065291906111f5565b905060008167ffffffffffffffff81111561066f5761066f61120e565b604051908082528060200260200182016040528015610698578160200160208202803683370190505b509050600060015b838111610795576001546040517f6352211e0000000000000000000000000000000000000000000000000000000081526004810183905273ffffffffffffffffffffffffffffffffffffffff888116921690636352211e90602401602060405180830381865afa158015610718573d6000803e3d6000fd5b505050506040513d601f19601f8201168201806040525081019061073c91906111d8565b73ffffffffffffffffffffffffffffffffffffffff1603610783578083838151811061076a5761076a61123d565b60209081029190910101528161077f8161126c565b9250505b8061078d8161126c565b9150506106a0565b5060008167ffffffffffffffff8111156107b1576107b161120e565b6040519080825280602002602001820160405280156107da578160200160208202803683370190505b50905060005b82811015610827578381815181106107fa576107fa61123d565b60200260200101518282815181106108145761081461123d565b60209081029190910101526001016107e0565b5095945050505050565b60606000600160009054906101000a900473ffffffffffffffffffffffffffffffffffffffff1673ffffffffffffffffffffffffffffffffffffffff1663f08b82e66040518163ffffffff1660e01b8152600401602060405180830381865afa1580156108a2573d6000803e3d6000fd5b505050506040513d601f19601f820116820180604052508101906108c691906111f5565b67ffffffffffffffff8111156108de576108de61120e565b60405190808252806020026020018201604052801561094e57816020015b6040805160808101825260008082526020808301829052928201819052606082015282527fffffffffffffffffffffffffffffffffffffffffffffffffffffffffffffffff9092019101816108fc5790505b509050600060015b600160009054906101000a900473ffffffffffffffffffffffffffffffffffffffff1673ffffffffffffffffffffffffffffffffffffffff1663f08b82e66040518163ffffffff1660e01b8152600401602060405180830381865afa1580156109c3573d6000803e3d6000fd5b505050506040513d601f19601f820116820180604052508101906109e791906111f5565b8111610aa05760008181526002602052604090206003015460ff1615610a8e57600081815260026020818152604092839020835160808101855281548152600182015473ffffffffffffffffffffffffffffffffffffffff169281019290925291820154928101929092526003015460ff16151560608201528351849084908110610a7457610a7461123d565b60200260200101819052508180610a8a9061126c565b9250505b80610a988161126c565b915050610956565b509092915050565b610ab0611055565b600081815260026020818152604092839020835160808101855281548152600182015473ffffffffffffffffffffffffffffffffffffffff169281019290925291820154928101929092526003015460ff16151560608201819052610b71576040517f08c379a000000000000000000000000000000000000000000000000000000000815260206004820152601860248201527f5468697320636172206973206e6f7420666f722073616c650000000000000000604482015260640161048d565b8060400151341015610bdf576040517f08c379a000000000000000000000000000000000000000000000000000000000815260206004820152601860248201527f496e73756666696369656e742066756e64732073656e742e0000000000000000604482015260640161048d565b60208101516001546040517f42842e0e00000000000000000000000000000000000000000000000000000000815273ffffffffffffffffffffffffffffffffffffffff808416600483015233602483015260448201869052909116906342842e0e90606401600060405180830381600087803b158015610c5e57600080fd5b505af1158015610c72573d6000803e3d6000fd5b505050602083015160405173ffffffffffffffffffffffffffffffffffffffff90911691503480156108fc02916000818181858888f19350505050158015610cbe573d6000803e3d6000fd5b506000838152600260209081526040918290206003810180547fffffffffffffffffffffffffffffffffffffffffffffffffffffffffffffff0016905560010180547fffffffffffffffffffffffff000000000000000000000000000000000000000016339081179091558483015192519283529173ffffffffffffffffffffffffffffffffffffffff84169186917f8205a71867f7292bcef9e53d4774758d6173b03f63017dec9a03a6664b429dc5910160405180910390a45050610d846001600055565b50565b6001546040517f6352211e000000000000000000000000000000000000000000000000000000008152600481018490528391339173ffffffffffffffffffffffffffffffffffffffff90911690636352211e90602401602060405180830381865afa158015610dfa573d6000803e3d6000fd5b505050506040513d601f19601f82011682018060405250810190610e1e91906111d8565b73ffffffffffffffffffffffffffffffffffffffff1614610ec0576040517f08c379a0000000000000000000000000000000000000000000000000000000008152602060048201526024808201527f43616c6c6572206973206e6f7420746865206f776e6572206f6620746865207460448201527f6f6b656e00000000000000000000000000000000000000000000000000000000606482015260840161048d565b60008381526002602052604090206003015460ff1615610f62576040517f08c379a000000000000000000000000000000000000000000000000000000000815260206004820152602360248201527f546869732063617220697320616c7265616479206c697374656420666f72207360448201527f616c650000000000000000000000000000000000000000000000000000000000606482015260840161048d565b6040805160808101825284815233602080830182815283850187815260016060860181815260008b815260028087529089902097518855935191870180547fffffffffffffffffffffffff00000000000000000000000000000000000000001673ffffffffffffffffffffffffffffffffffffffff9093169290921790915590519185019190915551600390930180547fffffffffffffffffffffffffffffffffffffffffffffffffffffffffffffff001693151593909317909255915184815285917f346237025e4b201cfbdb8011c7afcd8a0cc16c50e910d6ac5645ab7406be429d910160405180910390a3505050565b600260005403611091576040517f3ee5aeb500000000000000000000000000000000000000000000000000000000815260040160405180910390fd5b6002600055565b6000602082840312156110aa57600080fd5b5035919050565b73ffffffffffffffffffffffffffffffffffffffff81168114610d8457600080fd5b6000602082840312156110e557600080fd5b81356110f0816110b1565b9392505050565b6020808252825182820181905260009190848201906040850190845b8181101561112f57835183529284019291840191600101611113565b50909695505050505050565b6020808252825182820181905260009190848201906040850190845b8181101561112f576111a38385518051825273ffffffffffffffffffffffffffffffffffffffff6020820151166020830152604081015160408301526060810151151560608301525050565b9284019260809290920191600101611157565b600080604083850312156111c957600080fd5b50508035926020909101359150565b6000602082840312156111ea57600080fd5b81516110f0816110b1565b60006020828403121561120757600080fd5b5051919050565b7f4e487b7100000000000000000000000000000000000000000000000000000000600052604160045260246000fd5b7f4e487b7100000000000000000000000000000000000000000000000000000000600052603260045260246000fd5b60007fffffffffffffffffffffffffffffffffffffffffffffffffffffffffffffffff82036112c4577f4e487b7100000000000000000000000000000000000000000000000000000000600052601160045260246000fd5b506001019056fea2646970667358221220849eaafd894c620a700171e7160a6412e8cc04cd1e0e949b74424c1b31b4982b64736f6c63430008180033",
  "linkReferences": {},
  "deployedLinkReferences": {}
}