{
  "address": "0x5FbDB2315678afecb367f032d93F642f64180aa3",
  "_format": "hh-sol-artifact-1",
  "contractName": "CarToken",
  "sourceName": "contracts/CarToken.sol",
  "abi": [
    {
      "inputs": [
        {
          "internalType": "address",
          "name": "initialOwner",
          "type": "address"
        }
      ],
      "stateMutability": "nonpayable",
      "type": "constructor"
    },
    {
      "inputs": [
        {
          "internalType": "address",
          "name": "sender",
          "type": "address"
        },
        {
          "internalType": "uint256",
          "name": "tokenId",
          "type": "uint256"
        },
        {
          "internalType": "address",
          "name": "owner",
          "type": "address"
        }
      ],
      "name": "ERC721IncorrectOwner",
      "type": "error"
    },
    {
      "inputs": [
        {
          "internalType": "address",
          "name": "operator",
          "type": "address"
        },
        {
          "internalType": "uint256",
          "name": "tokenId",
          "type": "uint256"
        }
      ],
      "name": "ERC721InsufficientApproval",
      "type": "error"
    },
    {
      "inputs": [
        {
          "internalType": "address",
          "name": "approver",
          "type": "address"
        }
      ],
      "name": "ERC721InvalidApprover",
      "type": "error"
    },
    {
      "inputs": [
        {
          "internalType": "address",
          "name": "operator",
          "type": "address"
        }
      ],
      "name": "ERC721InvalidOperator",
      "type": "error"
    },
    {
      "inputs": [
        {
          "internalType": "address",
          "name": "owner",
          "type": "address"
        }
      ],
      "name": "ERC721InvalidOwner",
      "type": "error"
    },
    {
      "inputs": [
        {
          "internalType": "address",
          "name": "receiver",
          "type": "address"
        }
      ],
      "name": "ERC721InvalidReceiver",
      "type": "error"
    },
    {
      "inputs": [
        {
          "internalType": "address",
          "name": "sender",
          "type": "address"
        }
      ],
      "name": "ERC721InvalidSender",
      "type": "error"
    },
    {
      "inputs": [
        {
          "internalType": "uint256",
          "name": "tokenId",
          "type": "uint256"
        }
      ],
      "name": "ERC721NonexistentToken",
      "type": "error"
    },
    {
      "inputs": [
        {
          "internalType": "address",
          "name": "owner",
          "type": "address"
        }
      ],
      "name": "OwnableInvalidOwner",
      "type": "error"
    },
    {
      "inputs": [
        {
          "internalType": "address",
          "name": "account",
          "type": "address"
        }
      ],
      "name": "OwnableUnauthorizedAccount",
      "type": "error"
    },
    {
      "anonymous": false,
      "inputs": [
        {
          "indexed": true,
          "internalType": "address",
          "name": "owner",
          "type": "address"
        },
        {
          "indexed": true,
          "internalType": "address",
          "name": "approved",
          "type": "address"
        },
        {
          "indexed": true,
          "internalType": "uint256",
          "name": "tokenId",
          "type": "uint256"
        }
      ],
      "name": "Approval",
      "type": "event"
    },
    {
      "anonymous": false,
      "inputs": [
        {
          "indexed": true,
          "internalType": "address",
          "name": "owner",
          "type": "address"
        },
        {
          "indexed": true,
          "internalType": "address",
          "name": "operator",
          "type": "address"
        },
        {
          "indexed": false,
          "internalType": "bool",
          "name": "approved",
          "type": "bool"
        }
      ],
      "name": "ApprovalForAll",
      "type": "event"
    },
    {
      "anonymous": false,
      "inputs": [
        {
          "indexed": false,
          "internalType": "uint256",
          "name": "_fromTokenId",
          "type": "uint256"
        },
        {
          "indexed": false,
          "internalType": "uint256",
          "name": "_toTokenId",
          "type": "uint256"
        }
      ],
      "name": "BatchMetadataUpdate",
      "type": "event"
    },
    {
      "anonymous": false,
      "inputs": [
        {
          "indexed": false,
          "internalType": "uint256",
          "name": "_tokenId",
          "type": "uint256"
        }
      ],
      "name": "MetadataUpdate",
      "type": "event"
    },
    {
      "anonymous": false,
      "inputs": [
        {
          "indexed": true,
          "internalType": "address",
          "name": "previousOwner",
          "type": "address"
        },
        {
          "indexed": true,
          "internalType": "address",
          "name": "newOwner",
          "type": "address"
        }
      ],
      "name": "OwnershipTransferred",
      "type": "event"
    },
    {
      "anonymous": false,
      "inputs": [
        {
          "indexed": false,
          "internalType": "uint256",
          "name": "tokenId",
          "type": "uint256"
        }
      ],
      "name": "TokenBurned",
      "type": "event"
    },
    {
      "anonymous": false,
      "inputs": [
        {
          "indexed": false,
          "internalType": "address",
          "name": "to",
          "type": "address"
        },
        {
          "indexed": false,
          "internalType": "uint256",
          "name": "tokenId",
          "type": "uint256"
        },
        {
          "indexed": false,
          "internalType": "string",
          "name": "uri",
          "type": "string"
        }
      ],
      "name": "TokenMinted",
      "type": "event"
    },
    {
      "anonymous": false,
      "inputs": [
        {
          "indexed": true,
          "internalType": "address",
          "name": "from",
          "type": "address"
        },
        {
          "indexed": true,
          "internalType": "address",
          "name": "to",
          "type": "address"
        },
        {
          "indexed": true,
          "internalType": "uint256",
          "name": "tokenId",
          "type": "uint256"
        }
      ],
      "name": "Transfer",
      "type": "event"
    },
    {
      "inputs": [
        {
          "internalType": "address",
          "name": "to",
          "type": "address"
        },
        {
          "internalType": "uint256",
          "name": "tokenId",
          "type": "uint256"
        }
      ],
      "name": "approve",
      "outputs": [],
      "stateMutability": "nonpayable",
      "type": "function"
    },
    {
      "inputs": [
        {
          "internalType": "address",
          "name": "owner",
          "type": "address"
        }
      ],
      "name": "balanceOf",
      "outputs": [
        {
          "internalType": "uint256",
          "name": "",
          "type": "uint256"
        }
      ],
      "stateMutability": "view",
      "type": "function"
    },
    {
      "inputs": [
        {
          "internalType": "uint256",
          "name": "tokenId",
          "type": "uint256"
        }
      ],
      "name": "burn",
      "outputs": [],
      "stateMutability": "nonpayable",
      "type": "function"
    },
    {
      "inputs": [
        {
          "internalType": "uint256",
          "name": "tokenId",
          "type": "uint256"
        }
      ],
      "name": "getApproved",
      "outputs": [
        {
          "internalType": "address",
          "name": "",
          "type": "address"
        }
      ],
      "stateMutability": "view",
      "type": "function"
    },
    {
      "inputs": [],
      "name": "getTotalTokens",
      "outputs": [
        {
          "internalType": "uint256",
          "name": "",
          "type": "uint256"
        }
      ],
      "stateMutability": "view",
      "type": "function"
    },
    {
      "inputs": [
        {
          "internalType": "address",
          "name": "owner",
          "type": "address"
        },
        {
          "internalType": "address",
          "name": "operator",
          "type": "address"
        }
      ],
      "name": "isApprovedForAll",
      "outputs": [
        {
          "internalType": "bool",
          "name": "",
          "type": "bool"
        }
      ],
      "stateMutability": "view",
      "type": "function"
    },
    {
      "inputs": [],
      "name": "name",
      "outputs": [
        {
          "internalType": "string",
          "name": "",
          "type": "string"
        }
      ],
      "stateMutability": "view",
      "type": "function"
    },
    {
      "inputs": [],
      "name": "owner",
      "outputs": [
        {
          "internalType": "address",
          "name": "",
          "type": "address"
        }
      ],
      "stateMutability": "view",
      "type": "function"
    },
    {
      "inputs": [
        {
          "internalType": "uint256",
          "name": "tokenId",
          "type": "uint256"
        }
      ],
      "name": "ownerOf",
      "outputs": [
        {
          "internalType": "address",
          "name": "",
          "type": "address"
        }
      ],
      "stateMutability": "view",
      "type": "function"
    },
    {
      "inputs": [],
      "name": "renounceOwnership",
      "outputs": [],
      "stateMutability": "nonpayable",
      "type": "function"
    },
    {
      "inputs": [
        {
          "internalType": "address",
          "name": "to",
          "type": "address"
        },
        {
          "internalType": "uint256",
          "name": "tokenId",
          "type": "uint256"
        },
        {
          "internalType": "string",
          "name": "uri",
          "type": "string"
        }
      ],
      "name": "safeMint",
      "outputs": [],
      "stateMutability": "nonpayable",
      "type": "function"
    },
    {
      "inputs": [
        {
          "internalType": "address",
          "name": "from",
          "type": "address"
        },
        {
          "internalType": "address",
          "name": "to",
          "type": "address"
        },
        {
          "internalType": "uint256",
          "name": "tokenId",
          "type": "uint256"
        }
      ],
      "name": "safeTransferFrom",
      "outputs": [],
      "stateMutability": "nonpayable",
      "type": "function"
    },
    {
      "inputs": [
        {
          "internalType": "address",
          "name": "from",
          "type": "address"
        },
        {
          "internalType": "address",
          "name": "to",
          "type": "address"
        },
        {
          "internalType": "uint256",
          "name": "tokenId",
          "type": "uint256"
        },
        {
          "internalType": "bytes",
          "name": "data",
          "type": "bytes"
        }
      ],
      "name": "safeTransferFrom",
      "outputs": [],
      "stateMutability": "nonpayable",
      "type": "function"
    },
    {
      "inputs": [
        {
          "internalType": "address",
          "name": "operator",
          "type": "address"
        },
        {
          "internalType": "bool",
          "name": "approved",
          "type": "bool"
        }
      ],
      "name": "setApprovalForAll",
      "outputs": [],
      "stateMutability": "nonpayable",
      "type": "function"
    },
    {
      "inputs": [
        {
          "internalType": "bytes4",
          "name": "interfaceId",
          "type": "bytes4"
        }
      ],
      "name": "supportsInterface",
      "outputs": [
        {
          "internalType": "bool",
          "name": "",
          "type": "bool"
        }
      ],
      "stateMutability": "view",
      "type": "function"
    },
    {
      "inputs": [],
      "name": "symbol",
      "outputs": [
        {
          "internalType": "string",
          "name": "",
          "type": "string"
        }
      ],
      "stateMutability": "view",
      "type": "function"
    },
    {
      "inputs": [
        {
          "internalType": "uint256",
          "name": "tokenId",
          "type": "uint256"
        }
      ],
      "name": "tokenURI",
      "outputs": [
        {
          "internalType": "string",
          "name": "",
          "type": "string"
        }
      ],
      "stateMutability": "view",
      "type": "function"
    },
    {
      "inputs": [],
      "name": "totalTokens",
      "outputs": [
        {
          "internalType": "uint256",
          "name": "",
          "type": "uint256"
        }
      ],
      "stateMutability": "view",
      "type": "function"
    },
    {
      "inputs": [
        {
          "internalType": "address",
          "name": "from",
          "type": "address"
        },
        {
          "internalType": "address",
          "name": "to",
          "type": "address"
        },
        {
          "internalType": "uint256",
          "name": "tokenId",
          "type": "uint256"
        }
      ],
      "name": "transferFrom",
      "outputs": [],
      "stateMutability": "nonpayable",
      "type": "function"
    },
    {
      "inputs": [
        {
          "internalType": "address",
          "name": "newOwner",
          "type": "address"
        }
      ],
      "name": "transferOwnership",
      "outputs": [],
      "stateMutability": "nonpayable",
      "type": "function"
    }
  ],
  "bytecode": "0x60806040523480156200001157600080fd5b5060405162001cb638038062001cb6833981016040819052620000349162000129565b806040518060400160405280600881526020016721b0b92a37b5b2b760c11b8152506040518060400160405280600381526020016221a0a960e91b815250816000908162000083919062000202565b50600162000092828262000202565b5050506001600160a01b038116620000c457604051631e4fbdf760e01b81526000600482015260240160405180910390fd5b620000cf81620000d7565b5050620002ce565b600780546001600160a01b038381166001600160a01b0319831681179093556040519116919082907f8be0079c531659141344cd1fd0a4f28419497f9722a3daafe3b4186f6b6457e090600090a35050565b6000602082840312156200013c57600080fd5b81516001600160a01b03811681146200015457600080fd5b9392505050565b634e487b7160e01b600052604160045260246000fd5b600181811c908216806200018657607f821691505b602082108103620001a757634e487b7160e01b600052602260045260246000fd5b50919050565b601f821115620001fd576000816000526020600020601f850160051c81016020861015620001d85750805b601f850160051c820191505b81811015620001f957828155600101620001e4565b5050505b505050565b81516001600160401b038111156200021e576200021e6200015b565b62000236816200022f845462000171565b84620001ad565b602080601f8311600181146200026e5760008415620002555750858301515b600019600386901b1c1916600185901b178555620001f9565b600085815260208120601f198616915b828110156200029f578886015182559484019460019091019084016200027e565b5085821015620002be5787850151600019600388901b60f8161c191681555b5050505050600190811b01905550565b6119d880620002de6000396000f3fe608060405234801561001057600080fd5b506004361061016c5760003560e01c80637e1c0c09116100cd578063c87b56dd11610081578063e985e9c511610066578063e985e9c5146102d1578063f08b82e61461030d578063f2fde38b1461031557600080fd5b8063c87b56dd146102ab578063cd279c7c146102be57600080fd5b806395d89b41116100b257806395d89b411461027d578063a22cb46514610285578063b88d4fde1461029857600080fd5b80637e1c0c09146102635780638da5cb5b1461026c57600080fd5b806342842e0e116101245780636352211e116101095780636352211e1461022757806370a082311461023a578063715018a61461025b57600080fd5b806342842e0e1461020157806342966c681461021457600080fd5b8063081812fc11610155578063081812fc146101ae578063095ea7b3146101d957806323b872dd146101ee57600080fd5b806301ffc9a71461017157806306fdde0314610199575b600080fd5b61018461017f366004611360565b610328565b60405190151581526020015b60405180910390f35b6101a1610339565b60405161019091906113eb565b6101c16101bc3660046113fe565b6103cb565b6040516001600160a01b039091168152602001610190565b6101ec6101e7366004611433565b6103f4565b005b6101ec6101fc36600461145d565b610403565b6101ec61020f36600461145d565b6104c5565b6101ec6102223660046113fe565b6104e5565b6101c16102353660046113fe565b6104f1565b61024d610248366004611499565b6104fc565b604051908152602001610190565b6101ec61055d565b61024d60085481565b6007546001600160a01b03166101c1565b6101a1610571565b6101ec6102933660046114b4565b610580565b6101ec6102a63660046115b3565b61058b565b6101a16102b93660046113fe565b6105a2565b6101ec6102cc36600461162f565b6105ad565b6101846102df36600461169a565b6001600160a01b03918216600090815260056020908152604080832093909416825291909152205460ff1690565b60085461024d565b6101ec610323366004611499565b61061e565b600061033382610675565b92915050565b606060008054610348906116cd565b80601f0160208091040260200160405190810160405280929190818152602001828054610374906116cd565b80156103c15780601f10610396576101008083540402835291602001916103c1565b820191906000526020600020905b8154815290600101906020018083116103a457829003601f168201915b5050505050905090565b60006103d6826106cb565b506000828152600460205260409020546001600160a01b0316610333565b6103ff82823361071d565b5050565b6001600160a01b03821661044b576040517f64a0ae92000000000000000000000000000000000000000000000000000000008152600060048201526024015b60405180910390fd5b600061045883833361072a565b9050836001600160a01b0316816001600160a01b0316146104bf576040517f64283d7b0000000000000000000000000000000000000000000000000000000081526001600160a01b0380861660048301526024820184905282166044820152606401610442565b50505050565b6104e08383836040518060200160405280600081525061058b565b505050565b6103ff6000823361072a565b6000610333826106cb565b60006001600160a01b038216610541576040517f89c62b6400000000000000000000000000000000000000000000000000000000815260006004820152602401610442565b506001600160a01b031660009081526003602052604090205490565b610565610859565b61056f600061089f565b565b606060018054610348906116cd565b6103ff338383610909565b610596848484610403565b6104bf848484846109df565b606061033382610ba2565b6105b5610859565b600880549060006105c583611720565b91905055506105d48383610cb3565b6105de8282610ccd565b7fdf92894dc4675a7333caa5903b69cf5d8e8ec0d3f361c88207b6688e525703bb8383836040516106119392919061177f565b60405180910390a1505050565b610626610859565b6001600160a01b038116610669576040517f1e4fbdf700000000000000000000000000000000000000000000000000000000815260006004820152602401610442565b6106728161089f565b50565b60007fffffffff0000000000000000000000000000000000000000000000000000000082167f49064906000000000000000000000000000000000000000000000000000000001480610333575061033382610d1d565b6000818152600260205260408120546001600160a01b031680610333576040517f7e27328900000000000000000000000000000000000000000000000000000000815260048101849052602401610442565b6104e08383836001610e00565b6000828152600260205260408120546001600160a01b039081169083161561075757610757818486610f56565b6001600160a01b038116156107b357610774600085600080610e00565b6001600160a01b038116600090815260036020526040902080547fffffffffffffffffffffffffffffffffffffffffffffffffffffffffffffffff0190555b6001600160a01b038516156107e2576001600160a01b0385166000908152600360205260409020805460010190555b60008481526002602052604080822080547fffffffffffffffffffffffff0000000000000000000000000000000000000000166001600160a01b0389811691821790925591518793918516917fddf252ad1be2c89b69c2b068fc378daa952ba7f163c4a11628f55a4df523b3ef91a4949350505050565b6007546001600160a01b0316331461056f576040517f118cdaa7000000000000000000000000000000000000000000000000000000008152336004820152602401610442565b600780546001600160a01b038381167fffffffffffffffffffffffff0000000000000000000000000000000000000000831681179093556040519116919082907f8be0079c531659141344cd1fd0a4f28419497f9722a3daafe3b4186f6b6457e090600090a35050565b6001600160a01b038216610954576040517f5b08ba180000000000000000000000000000000000000000000000000000000081526001600160a01b0383166004820152602401610442565b6001600160a01b0383811660008181526005602090815260408083209487168084529482529182902080547fffffffffffffffffffffffffffffffffffffffffffffffffffffffffffffff001686151590811790915591519182527f17307eab39ab6107e8899845ad3d59bd9653f200f220920489ca2b5937696c31910160405180910390a3505050565b6001600160a01b0383163b156104bf576040517f150b7a020000000000000000000000000000000000000000000000000000000081526001600160a01b0384169063150b7a0290610a3a9033908890879087906004016117b0565b6020604051808303816000875af1925050508015610a93575060408051601f3d9081017fffffffffffffffffffffffffffffffffffffffffffffffffffffffffffffffe0168201909252610a90918101906117ec565b60015b610b15573d808015610ac1576040519150601f19603f3d011682016040523d82523d6000602084013e610ac6565b606091505b508051600003610b0d576040517f64a0ae920000000000000000000000000000000000000000000000000000000081526001600160a01b0385166004820152602401610442565b805181602001fd5b7fffffffff0000000000000000000000000000000000000000000000000000000081167f150b7a020000000000000000000000000000000000000000000000000000000014610b9b576040517f64a0ae920000000000000000000000000000000000000000000000000000000081526001600160a01b0385166004820152602401610442565b5050505050565b6060610bad826106cb565b5060008281526006602052604081208054610bc7906116cd565b80601f0160208091040260200160405190810160405280929190818152602001828054610bf3906116cd565b8015610c405780601f10610c1557610100808354040283529160200191610c40565b820191906000526020600020905b815481529060010190602001808311610c2357829003601f168201915b505050505090506000610c5e60408051602081019091526000815290565b90508051600003610c70575092915050565b815115610ca2578082604051602001610c8a929190611809565b60405160208183030381529060405292505050919050565b610cab84610fec565b949350505050565b6103ff828260405180602001604052806000815250611061565b6000828152600660205260409020610ce58282611888565b506040518281527ff8e1a15aba9398e019f0b49df1a4fde98ee17ae345cb5f6b5e2c27f5033e8ce79060200160405180910390a15050565b60007fffffffff0000000000000000000000000000000000000000000000000000000082167f80ac58cd000000000000000000000000000000000000000000000000000000001480610db057507fffffffff0000000000000000000000000000000000000000000000000000000082167f5b5e139f00000000000000000000000000000000000000000000000000000000145b8061033357507f01ffc9a7000000000000000000000000000000000000000000000000000000007fffffffff00000000000000000000000000000000000000000000000000000000831614610333565b8080610e1457506001600160a01b03821615155b15610f0e576000610e24846106cb565b90506001600160a01b03831615801590610e505750826001600160a01b0316816001600160a01b031614155b8015610e8257506001600160a01b0380821660009081526005602090815260408083209387168352929052205460ff16155b15610ec4576040517fa9fbf51f0000000000000000000000000000000000000000000000000000000081526001600160a01b0384166004820152602401610442565b8115610f0c5783856001600160a01b0316826001600160a01b03167f8c5be1e5ebec7d5bd14f71427d1e84f3dd0314c0f7b2291e5b200ac8c7c3b92560405160405180910390a45b505b5050600090815260046020526040902080547fffffffffffffffffffffffff0000000000000000000000000000000000000000166001600160a01b0392909216919091179055565b610f61838383611078565b6104e0576001600160a01b038316610fa8576040517f7e27328900000000000000000000000000000000000000000000000000000000815260048101829052602401610442565b6040517f177e802f0000000000000000000000000000000000000000000000000000000081526001600160a01b038316600482015260248101829052604401610442565b6060610ff7826106cb565b50600061100f60408051602081019091526000815290565b9050600081511161102f576040518060200160405280600081525061105a565b80611039846110fb565b60405160200161104a929190611809565b6040516020818303038152906040525b9392505050565b61106b83836111b9565b6104e060008484846109df565b60006001600160a01b03831615801590610cab5750826001600160a01b0316846001600160a01b031614806110d257506001600160a01b0380851660009081526005602090815260408083209387168352929052205460ff165b80610cab5750506000908152600460205260409020546001600160a01b03908116911614919050565b6060600061110883611250565b600101905060008167ffffffffffffffff811115611128576111286114f0565b6040519080825280601f01601f191660200182016040528015611152576020820181803683370190505b5090508181016020015b7fffffffffffffffffffffffffffffffffffffffffffffffffffffffffffffffff017f3031323334353637383961626364656600000000000000000000000000000000600a86061a8153600a850494508461115c57509392505050565b6001600160a01b0382166111fc576040517f64a0ae9200000000000000000000000000000000000000000000000000000000815260006004820152602401610442565b600061120a8383600061072a565b90506001600160a01b038116156104e0576040517f73c6ac6e00000000000000000000000000000000000000000000000000000000815260006004820152602401610442565b6000807a184f03e93ff9f4daa797ed6e38ed64bf6a1f0100000000000000008310611299577a184f03e93ff9f4daa797ed6e38ed64bf6a1f010000000000000000830492506040015b6d04ee2d6d415b85acef810000000083106112c5576d04ee2d6d415b85acef8100000000830492506020015b662386f26fc1000083106112e357662386f26fc10000830492506010015b6305f5e10083106112fb576305f5e100830492506008015b612710831061130f57612710830492506004015b60648310611321576064830492506002015b600a83106103335760010192915050565b7fffffffff000000000000000000000000000000000000000000000000000000008116811461067257600080fd5b60006020828403121561137257600080fd5b813561105a81611332565b60005b83811015611398578181015183820152602001611380565b50506000910152565b600081518084526113b981602086016020860161137d565b601f017fffffffffffffffffffffffffffffffffffffffffffffffffffffffffffffffe0169290920160200192915050565b60208152600061105a60208301846113a1565b60006020828403121561141057600080fd5b5035919050565b80356001600160a01b038116811461142e57600080fd5b919050565b6000806040838503121561144657600080fd5b61144f83611417565b946020939093013593505050565b60008060006060848603121561147257600080fd5b61147b84611417565b925061148960208501611417565b9150604084013590509250925092565b6000602082840312156114ab57600080fd5b61105a82611417565b600080604083850312156114c757600080fd5b6114d083611417565b9150602083013580151581146114e557600080fd5b809150509250929050565b7f4e487b7100000000000000000000000000000000000000000000000000000000600052604160045260246000fd5b600067ffffffffffffffff8084111561153a5761153a6114f0565b604051601f85017fffffffffffffffffffffffffffffffffffffffffffffffffffffffffffffffe0908116603f01168101908282118183101715611580576115806114f0565b8160405280935085815286868601111561159957600080fd5b858560208301376000602087830101525050509392505050565b600080600080608085870312156115c957600080fd5b6115d285611417565b93506115e060208601611417565b925060408501359150606085013567ffffffffffffffff81111561160357600080fd5b8501601f8101871361161457600080fd5b6116238782356020840161151f565b91505092959194509250565b60008060006060848603121561164457600080fd5b61164d84611417565b925060208401359150604084013567ffffffffffffffff81111561167057600080fd5b8401601f8101861361168157600080fd5b6116908682356020840161151f565b9150509250925092565b600080604083850312156116ad57600080fd5b6116b683611417565b91506116c460208401611417565b90509250929050565b600181811c908216806116e157607f821691505b60208210810361171a577f4e487b7100000000000000000000000000000000000000000000000000000000600052602260045260246000fd5b50919050565b60007fffffffffffffffffffffffffffffffffffffffffffffffffffffffffffffffff8203611778577f4e487b7100000000000000000000000000000000000000000000000000000000600052601160045260246000fd5b5060010190565b6001600160a01b03841681528260208201526060604082015260006117a760608301846113a1565b95945050505050565b60006001600160a01b038087168352808616602084015250836040830152608060608301526117e260808301846113a1565b9695505050505050565b6000602082840312156117fe57600080fd5b815161105a81611332565b6000835161181b81846020880161137d565b83519083019061182f81836020880161137d565b01949350505050565b601f8211156104e0576000816000526020600020601f850160051c810160208610156118615750805b601f850160051c820191505b818110156118805782815560010161186d565b505050505050565b815167ffffffffffffffff8111156118a2576118a26114f0565b6118b6816118b084546116cd565b84611838565b602080601f83116001811461190957600084156118d35750858301515b7fffffffffffffffffffffffffffffffffffffffffffffffffffffffffffffffff600386901b1c1916600185901b178555611880565b6000858152602081207fffffffffffffffffffffffffffffffffffffffffffffffffffffffffffffffe08616915b8281101561195657888601518255948401946001909101908401611937565b508582101561199257878501517fffffffffffffffffffffffffffffffffffffffffffffffffffffffffffffffff600388901b60f8161c191681555b5050505050600190811b0190555056fea26469706673582212209ae4626c282e7e8dff2a240bf070de8c6dd15e3c1d6269999c66875981c9849f64736f6c63430008180033",
  "linkReferences": {},
  "deployedLinkReferences": {}
}