{
  "address": "0x5FbDB2315678afecb367f032d93F642f64180aa3",
  "_format": "hh-sol-artifact-1",
  "contractName": "CarToken",
  "sourceName": "contracts/CarToken.sol",
  "abi": [
    {
      "inputs": [
        {
          "internalType": "address",
          "name": "initialOwner",
          "type": "address"
        }
      ],
      "stateMutability": "nonpayable",
      "type": "constructor"
    },
    {
      "inputs": [
        {
          "internalType": "address",
          "name": "sender",
          "type": "address"
        },
        {
          "internalType": "uint256",
          "name": "tokenId",
          "type": "uint256"
        },
        {
          "internalType": "address",
          "name": "owner",
          "type": "address"
        }
      ],
      "name": "ERC721IncorrectOwner",
      "type": "error"
    },
    {
      "inputs": [
        {
          "internalType": "address",
          "name": "operator",
          "type": "address"
        },
        {
          "internalType": "uint256",
          "name": "tokenId",
          "type": "uint256"
        }
      ],
      "name": "ERC721InsufficientApproval",
      "type": "error"
    },
    {
      "inputs": [
        {
          "internalType": "address",
          "name": "approver",
          "type": "address"
        }
      ],
      "name": "ERC721InvalidApprover",
      "type": "error"
    },
    {
      "inputs": [
        {
          "internalType": "address",
          "name": "operator",
          "type": "address"
        }
      ],
      "name": "ERC721InvalidOperator",
      "type": "error"
    },
    {
      "inputs": [
        {
          "internalType": "address",
          "name": "owner",
          "type": "address"
        }
      ],
      "name": "ERC721InvalidOwner",
      "type": "error"
    },
    {
      "inputs": [
        {
          "internalType": "address",
          "name": "receiver",
          "type": "address"
        }
      ],
      "name": "ERC721InvalidReceiver",
      "type": "error"
    },
    {
      "inputs": [
        {
          "internalType": "address",
          "name": "sender",
          "type": "address"
        }
      ],
      "name": "ERC721InvalidSender",
      "type": "error"
    },
    {
      "inputs": [
        {
          "internalType": "uint256",
          "name": "tokenId",
          "type": "uint256"
        }
      ],
      "name": "ERC721NonexistentToken",
      "type": "error"
    },
    {
      "anonymous": false,
      "inputs": [
        {
          "indexed": true,
          "internalType": "address",
          "name": "owner",
          "type": "address"
        },
        {
          "indexed": true,
          "internalType": "address",
          "name": "approved",
          "type": "address"
        },
        {
          "indexed": true,
          "internalType": "uint256",
          "name": "tokenId",
          "type": "uint256"
        }
      ],
      "name": "Approval",
      "type": "event"
    },
    {
      "anonymous": false,
      "inputs": [
        {
          "indexed": true,
          "internalType": "address",
          "name": "owner",
          "type": "address"
        },
        {
          "indexed": true,
          "internalType": "address",
          "name": "operator",
          "type": "address"
        },
        {
          "indexed": false,
          "internalType": "bool",
          "name": "approved",
          "type": "bool"
        }
      ],
      "name": "ApprovalForAll",
      "type": "event"
    },
    {
      "anonymous": false,
      "inputs": [
        {
          "indexed": false,
          "internalType": "uint256",
          "name": "_fromTokenId",
          "type": "uint256"
        },
        {
          "indexed": false,
          "internalType": "uint256",
          "name": "_toTokenId",
          "type": "uint256"
        }
      ],
      "name": "BatchMetadataUpdate",
      "type": "event"
    },
    {
      "anonymous": false,
      "inputs": [
        {
          "indexed": false,
          "internalType": "uint256",
          "name": "_tokenId",
          "type": "uint256"
        }
      ],
      "name": "MetadataUpdate",
      "type": "event"
    },
    {
      "anonymous": false,
      "inputs": [
        {
          "indexed": false,
          "internalType": "uint256",
          "name": "tokenId",
          "type": "uint256"
        }
      ],
      "name": "TokenBurned",
      "type": "event"
    },
    {
      "anonymous": false,
      "inputs": [
        {
          "indexed": false,
          "internalType": "address",
          "name": "to",
          "type": "address"
        },
        {
          "indexed": false,
          "internalType": "uint256",
          "name": "tokenId",
          "type": "uint256"
        },
        {
          "indexed": false,
          "internalType": "string",
          "name": "uri",
          "type": "string"
        }
      ],
      "name": "TokenMinted",
      "type": "event"
    },
    {
      "anonymous": false,
      "inputs": [
        {
          "indexed": true,
          "internalType": "address",
          "name": "from",
          "type": "address"
        },
        {
          "indexed": true,
          "internalType": "address",
          "name": "to",
          "type": "address"
        },
        {
          "indexed": true,
          "internalType": "uint256",
          "name": "tokenId",
          "type": "uint256"
        }
      ],
      "name": "Transfer",
      "type": "event"
    },
    {
      "inputs": [
        {
          "internalType": "address",
          "name": "to",
          "type": "address"
        },
        {
          "internalType": "uint256",
          "name": "tokenId",
          "type": "uint256"
        }
      ],
      "name": "approve",
      "outputs": [],
      "stateMutability": "nonpayable",
      "type": "function"
    },
    {
      "inputs": [
        {
          "internalType": "address",
          "name": "owner",
          "type": "address"
        }
      ],
      "name": "balanceOf",
      "outputs": [
        {
          "internalType": "uint256",
          "name": "",
          "type": "uint256"
        }
      ],
      "stateMutability": "view",
      "type": "function"
    },
    {
      "inputs": [
        {
          "internalType": "uint256",
          "name": "tokenId",
          "type": "uint256"
        }
      ],
      "name": "burn",
      "outputs": [],
      "stateMutability": "nonpayable",
      "type": "function"
    },
    {
      "inputs": [
        {
          "internalType": "uint256",
          "name": "tokenId",
          "type": "uint256"
        }
      ],
      "name": "getApproved",
      "outputs": [
        {
          "internalType": "address",
          "name": "",
          "type": "address"
        }
      ],
      "stateMutability": "view",
      "type": "function"
    },
    {
      "inputs": [],
      "name": "getTotalTokens",
      "outputs": [
        {
          "internalType": "uint256",
          "name": "",
          "type": "uint256"
        }
      ],
      "stateMutability": "view",
      "type": "function"
    },
    {
      "inputs": [
        {
          "internalType": "address",
          "name": "owner",
          "type": "address"
        },
        {
          "internalType": "address",
          "name": "operator",
          "type": "address"
        }
      ],
      "name": "isApprovedForAll",
      "outputs": [
        {
          "internalType": "bool",
          "name": "",
          "type": "bool"
        }
      ],
      "stateMutability": "view",
      "type": "function"
    },
    {
      "inputs": [],
      "name": "name",
      "outputs": [
        {
          "internalType": "string",
          "name": "",
          "type": "string"
        }
      ],
      "stateMutability": "view",
      "type": "function"
    },
    {
      "inputs": [
        {
          "internalType": "uint256",
          "name": "tokenId",
          "type": "uint256"
        }
      ],
      "name": "ownerOf",
      "outputs": [
        {
          "internalType": "address",
          "name": "",
          "type": "address"
        }
      ],
      "stateMutability": "view",
      "type": "function"
    },
    {
      "inputs": [
        {
          "internalType": "uint256",
          "name": "tokenId",
          "type": "uint256"
        }
      ],
      "name": "safeBurn",
      "outputs": [],
      "stateMutability": "nonpayable",
      "type": "function"
    },
    {
      "inputs": [
        {
          "internalType": "address",
          "name": "to",
          "type": "address"
        },
        {
          "internalType": "uint256",
          "name": "tokenId",
          "type": "uint256"
        },
        {
          "internalType": "string",
          "name": "uri",
          "type": "string"
        }
      ],
      "name": "safeMint",
      "outputs": [],
      "stateMutability": "nonpayable",
      "type": "function"
    },
    {
      "inputs": [
        {
          "internalType": "address",
          "name": "from",
          "type": "address"
        },
        {
          "internalType": "address",
          "name": "to",
          "type": "address"
        },
        {
          "internalType": "uint256",
          "name": "tokenId",
          "type": "uint256"
        }
      ],
      "name": "safeTransferFrom",
      "outputs": [],
      "stateMutability": "nonpayable",
      "type": "function"
    },
    {
      "inputs": [
        {
          "internalType": "address",
          "name": "from",
          "type": "address"
        },
        {
          "internalType": "address",
          "name": "to",
          "type": "address"
        },
        {
          "internalType": "uint256",
          "name": "tokenId",
          "type": "uint256"
        },
        {
          "internalType": "bytes",
          "name": "data",
          "type": "bytes"
        }
      ],
      "name": "safeTransferFrom",
      "outputs": [],
      "stateMutability": "nonpayable",
      "type": "function"
    },
    {
      "inputs": [
        {
          "internalType": "address",
          "name": "operator",
          "type": "address"
        },
        {
          "internalType": "bool",
          "name": "approved",
          "type": "bool"
        }
      ],
      "name": "setApprovalForAll",
      "outputs": [],
      "stateMutability": "nonpayable",
      "type": "function"
    },
    {
      "inputs": [
        {
          "internalType": "uint256",
          "name": "tokenId",
          "type": "uint256"
        },
        {
          "internalType": "string",
          "name": "uri",
          "type": "string"
        }
      ],
      "name": "setTokenURI",
      "outputs": [],
      "stateMutability": "nonpayable",
      "type": "function"
    },
    {
      "inputs": [
        {
          "internalType": "bytes4",
          "name": "interfaceId",
          "type": "bytes4"
        }
      ],
      "name": "supportsInterface",
      "outputs": [
        {
          "internalType": "bool",
          "name": "",
          "type": "bool"
        }
      ],
      "stateMutability": "view",
      "type": "function"
    },
    {
      "inputs": [],
      "name": "symbol",
      "outputs": [
        {
          "internalType": "string",
          "name": "",
          "type": "string"
        }
      ],
      "stateMutability": "view",
      "type": "function"
    },
    {
      "inputs": [
        {
          "internalType": "uint256",
          "name": "tokenId",
          "type": "uint256"
        }
      ],
      "name": "tokenURI",
      "outputs": [
        {
          "internalType": "string",
          "name": "",
          "type": "string"
        }
      ],
      "stateMutability": "view",
      "type": "function"
    },
    {
      "inputs": [],
      "name": "totalTokens",
      "outputs": [
        {
          "internalType": "uint256",
          "name": "",
          "type": "uint256"
        }
      ],
      "stateMutability": "view",
      "type": "function"
    },
    {
      "inputs": [
        {
          "internalType": "address",
          "name": "from",
          "type": "address"
        },
        {
          "internalType": "address",
          "name": "to",
          "type": "address"
        },
        {
          "internalType": "uint256",
          "name": "tokenId",
          "type": "uint256"
        }
      ],
      "name": "transferFrom",
      "outputs": [],
      "stateMutability": "nonpayable",
      "type": "function"
    }
  ],
  "bytecode": "0x60806040523480156200001157600080fd5b5060405162001e6b38038062001e6b83398101604081905262000034916200009b565b6040518060400160405280600881526020016721b0b92a37b5b2b760c11b8152506040518060400160405280600381526020016221a0a960e91b815250816000908162000082919062000174565b50600162000091828262000174565b5050505062000240565b600060208284031215620000ae57600080fd5b81516001600160a01b0381168114620000c657600080fd5b9392505050565b634e487b7160e01b600052604160045260246000fd5b600181811c90821680620000f857607f821691505b6020821081036200011957634e487b7160e01b600052602260045260246000fd5b50919050565b601f8211156200016f576000816000526020600020601f850160051c810160208610156200014a5750805b601f850160051c820191505b818110156200016b5782815560010162000156565b5050505b505050565b81516001600160401b03811115620001905762000190620000cd565b620001a881620001a18454620000e3565b846200011f565b602080601f831160018114620001e05760008415620001c75750858301515b600019600386901b1c1916600185901b1785556200016b565b600085815260208120601f198616915b828110156200021157888601518255948401946001909101908401620001f0565b5085821015620002305787850151600019600388901b60f8161c191681555b5050505050600190811b01905550565b611c1b80620002506000396000f3fe608060405234801561001057600080fd5b50600436106101515760003560e01c806370a08231116100cd578063c87b56dd11610081578063dbf5132511610066578063dbf51325146102bd578063e985e9c5146102d0578063f08b82e61461031957600080fd5b8063c87b56dd14610297578063cd279c7c146102aa57600080fd5b806395d89b41116100b257806395d89b4114610269578063a22cb46514610271578063b88d4fde1461028457600080fd5b806370a082311461023f5780637e1c0c091461026057600080fd5b8063162094c41161012457806342842e0e1161010957806342842e0e1461020657806342966c68146102195780636352211e1461022c57600080fd5b8063162094c4146101e057806323b872dd146101f357600080fd5b806301ffc9a71461015657806306fdde031461017e578063081812fc14610193578063095ea7b3146101cb575b600080fd5b610169610164366004611564565b610321565b60405190151581526020015b60405180910390f35b610186610332565b60405161017591906115ef565b6101a66101a1366004611602565b6103c4565b60405173ffffffffffffffffffffffffffffffffffffffff9091168152602001610175565b6101de6101d9366004611644565b6103fa565b005b6101de6101ee366004611751565b610409565b6101de610201366004611798565b610413565b6101de610214366004611798565b610509565b6101de610227366004611602565b610529565b6101a661023a366004611602565b610535565b61025261024d3660046117d4565b610540565b604051908152602001610175565b61025260075481565b6101866105bb565b6101de61027f3660046117ef565b6105ca565b6101de61029236600461182b565b6105d5565b6101866102a5366004611602565b6105ec565b6101de6102b83660046118a7565b6105f7565b6101de6102cb366004611602565b610660565b6101696102de3660046118fe565b73ffffffffffffffffffffffffffffffffffffffff918216600090815260056020908152604080832093909416825291909152205460ff1690565b600754610252565b600061032c82610761565b92915050565b60606000805461034190611931565b80601f016020809104026020016040519081016040528092919081815260200182805461036d90611931565b80156103ba5780601f1061038f576101008083540402835291602001916103ba565b820191906000526020600020905b81548152906001019060200180831161039d57829003601f168201915b5050505050905090565b60006103cf826107b7565b5060008281526004602052604090205473ffffffffffffffffffffffffffffffffffffffff1661032c565b610405828233610816565b5050565b6104058282610823565b73ffffffffffffffffffffffffffffffffffffffff8216610468576040517f64a0ae92000000000000000000000000000000000000000000000000000000008152600060048201526024015b60405180910390fd5b6000610475838333610873565b90508373ffffffffffffffffffffffffffffffffffffffff168173ffffffffffffffffffffffffffffffffffffffff1614610503576040517f64283d7b00000000000000000000000000000000000000000000000000000000815273ffffffffffffffffffffffffffffffffffffffff8086166004830152602482018490528216604482015260640161045f565b50505050565b610524838383604051806020016040528060008152506105d5565b505050565b61040560008233610873565b600061032c826107b7565b600073ffffffffffffffffffffffffffffffffffffffff8216610592576040517f89c62b640000000000000000000000000000000000000000000000000000000081526000600482015260240161045f565b5073ffffffffffffffffffffffffffffffffffffffff1660009081526003602052604090205490565b60606001805461034190611931565b6104053383836109d2565b6105e0848484610413565b61050384848484610acf565b606061032c82610cc6565b60078054906000610607836119b3565b91905055506106168383610dd7565b6106208282610823565b7fdf92894dc4675a7333caa5903b69cf5d8e8ec0d3f361c88207b6688e525703bb838383604051610653939291906119cd565b60405180910390a1505050565b3361066a82610535565b73ffffffffffffffffffffffffffffffffffffffff161461070d576040517f08c379a000000000000000000000000000000000000000000000000000000000815260206004820152602360248201527f4552433732314275726e61626c653a2063616c6c6572206973206e6f74206f7760448201527f6e65720000000000000000000000000000000000000000000000000000000000606482015260840161045f565b61071681610df1565b6007805490600061072683611a0b565b90915550506040518181527f0c526103b8f47af5516191d0c89a598755bd00faa211a3cb52e4c2cc782f7fe29060200160405180910390a150565b60007fffffffff0000000000000000000000000000000000000000000000000000000082167f4906490600000000000000000000000000000000000000000000000000000000148061032c575061032c82610e52565b60008181526002602052604081205473ffffffffffffffffffffffffffffffffffffffff168061032c576040517f7e2732890000000000000000000000000000000000000000000000000000000081526004810184905260240161045f565b6105248383836001610f35565b600082815260066020526040902061083b8282611a72565b506040518281527ff8e1a15aba9398e019f0b49df1a4fde98ee17ae345cb5f6b5e2c27f5033e8ce79060200160405180910390a15050565b60008281526002602052604081205473ffffffffffffffffffffffffffffffffffffffff908116908316156108ad576108ad818486611100565b73ffffffffffffffffffffffffffffffffffffffff811615610905576108d7600085600080610f35565b73ffffffffffffffffffffffffffffffffffffffff8116600090815260036020526040902080546000190190555b73ffffffffffffffffffffffffffffffffffffffff85161561094e5773ffffffffffffffffffffffffffffffffffffffff85166000908152600360205260409020805460010190555b60008481526002602052604080822080547fffffffffffffffffffffffff00000000000000000000000000000000000000001673ffffffffffffffffffffffffffffffffffffffff89811691821790925591518793918516917fddf252ad1be2c89b69c2b068fc378daa952ba7f163c4a11628f55a4df523b3ef91a4949350505050565b73ffffffffffffffffffffffffffffffffffffffff8216610a37576040517f5b08ba1800000000000000000000000000000000000000000000000000000000815273ffffffffffffffffffffffffffffffffffffffff8316600482015260240161045f565b73ffffffffffffffffffffffffffffffffffffffff83811660008181526005602090815260408083209487168084529482529182902080547fffffffffffffffffffffffffffffffffffffffffffffffffffffffffffffff001686151590811790915591519182527f17307eab39ab6107e8899845ad3d59bd9653f200f220920489ca2b5937696c31910160405180910390a3505050565b73ffffffffffffffffffffffffffffffffffffffff83163b15610503576040517f150b7a0200000000000000000000000000000000000000000000000000000000815273ffffffffffffffffffffffffffffffffffffffff84169063150b7a0290610b44903390889087908790600401611b50565b6020604051808303816000875af1925050508015610b9d575060408051601f3d9081017fffffffffffffffffffffffffffffffffffffffffffffffffffffffffffffffe0168201909252610b9a91810190611b99565b60015b610c2c573d808015610bcb576040519150601f19603f3d011682016040523d82523d6000602084013e610bd0565b606091505b508051600003610c24576040517f64a0ae9200000000000000000000000000000000000000000000000000000000815273ffffffffffffffffffffffffffffffffffffffff8516600482015260240161045f565b805181602001fd5b7fffffffff0000000000000000000000000000000000000000000000000000000081167f150b7a020000000000000000000000000000000000000000000000000000000014610cbf576040517f64a0ae9200000000000000000000000000000000000000000000000000000000815273ffffffffffffffffffffffffffffffffffffffff8516600482015260240161045f565b5050505050565b6060610cd1826107b7565b5060008281526006602052604081208054610ceb90611931565b80601f0160208091040260200160405190810160405280929190818152602001828054610d1790611931565b8015610d645780601f10610d3957610100808354040283529160200191610d64565b820191906000526020600020905b815481529060010190602001808311610d4757829003601f168201915b505050505090506000610d8260408051602081019091526000815290565b90508051600003610d94575092915050565b815115610dc6578082604051602001610dae929190611bb6565b60405160208183030381529060405292505050919050565b610dcf846111b0565b949350505050565b610405828260405180602001604052806000815250611225565b6000610e006000836000610873565b905073ffffffffffffffffffffffffffffffffffffffff8116610405576040517f7e2732890000000000000000000000000000000000000000000000000000000081526004810183905260240161045f565b60007fffffffff0000000000000000000000000000000000000000000000000000000082167f80ac58cd000000000000000000000000000000000000000000000000000000001480610ee557507fffffffff0000000000000000000000000000000000000000000000000000000082167f5b5e139f00000000000000000000000000000000000000000000000000000000145b8061032c57507f01ffc9a7000000000000000000000000000000000000000000000000000000007fffffffff0000000000000000000000000000000000000000000000000000000083161461032c565b8080610f56575073ffffffffffffffffffffffffffffffffffffffff821615155b156110ab576000610f66846107b7565b905073ffffffffffffffffffffffffffffffffffffffff831615801590610fb957508273ffffffffffffffffffffffffffffffffffffffff168173ffffffffffffffffffffffffffffffffffffffff1614155b8015610ff8575073ffffffffffffffffffffffffffffffffffffffff80821660009081526005602090815260408083209387168352929052205460ff16155b15611047576040517fa9fbf51f00000000000000000000000000000000000000000000000000000000815273ffffffffffffffffffffffffffffffffffffffff8416600482015260240161045f565b81156110a957838573ffffffffffffffffffffffffffffffffffffffff168273ffffffffffffffffffffffffffffffffffffffff167f8c5be1e5ebec7d5bd14f71427d1e84f3dd0314c0f7b2291e5b200ac8c7c3b92560405160405180910390a45b505b5050600090815260046020526040902080547fffffffffffffffffffffffff00000000000000000000000000000000000000001673ffffffffffffffffffffffffffffffffffffffff92909216919091179055565b61110b83838361123c565b6105245773ffffffffffffffffffffffffffffffffffffffff831661115f576040517f7e2732890000000000000000000000000000000000000000000000000000000081526004810182905260240161045f565b6040517f177e802f00000000000000000000000000000000000000000000000000000000815273ffffffffffffffffffffffffffffffffffffffff831660048201526024810182905260440161045f565b60606111bb826107b7565b5060006111d360408051602081019091526000815290565b905060008151116111f3576040518060200160405280600081525061121e565b806111fd84611300565b60405160200161120e929190611bb6565b6040516020818303038152906040525b9392505050565b61122f83836113a0565b6105246000848484610acf565b600073ffffffffffffffffffffffffffffffffffffffff831615801590610dcf57508273ffffffffffffffffffffffffffffffffffffffff168473ffffffffffffffffffffffffffffffffffffffff1614806112ca575073ffffffffffffffffffffffffffffffffffffffff80851660009081526005602090815260408083209387168352929052205460ff165b80610dcf57505060009081526004602052604090205473ffffffffffffffffffffffffffffffffffffffff908116911614919050565b6060600061130d83611451565b600101905060008167ffffffffffffffff81111561132d5761132d61166e565b6040519080825280601f01601f191660200182016040528015611357576020820181803683370190505b5090508181016020015b600019017f3031323334353637383961626364656600000000000000000000000000000000600a86061a8153600a850494508461136157509392505050565b73ffffffffffffffffffffffffffffffffffffffff82166113f0576040517f64a0ae920000000000000000000000000000000000000000000000000000000081526000600482015260240161045f565b60006113fe83836000610873565b905073ffffffffffffffffffffffffffffffffffffffff811615610524576040517f73c6ac6e0000000000000000000000000000000000000000000000000000000081526000600482015260240161045f565b6000807a184f03e93ff9f4daa797ed6e38ed64bf6a1f010000000000000000831061149a577a184f03e93ff9f4daa797ed6e38ed64bf6a1f010000000000000000830492506040015b6d04ee2d6d415b85acef810000000083106114c6576d04ee2d6d415b85acef8100000000830492506020015b662386f26fc1000083106114e457662386f26fc10000830492506010015b6305f5e10083106114fc576305f5e100830492506008015b612710831061151057612710830492506004015b60648310611522576064830492506002015b600a831061032c5760010192915050565b7fffffffff000000000000000000000000000000000000000000000000000000008116811461156157600080fd5b50565b60006020828403121561157657600080fd5b813561121e81611533565b60005b8381101561159c578181015183820152602001611584565b50506000910152565b600081518084526115bd816020860160208601611581565b601f017fffffffffffffffffffffffffffffffffffffffffffffffffffffffffffffffe0169290920160200192915050565b60208152600061121e60208301846115a5565b60006020828403121561161457600080fd5b5035919050565b803573ffffffffffffffffffffffffffffffffffffffff8116811461163f57600080fd5b919050565b6000806040838503121561165757600080fd5b6116608361161b565b946020939093013593505050565b7f4e487b7100000000000000000000000000000000000000000000000000000000600052604160045260246000fd5b600067ffffffffffffffff808411156116b8576116b861166e565b604051601f85017fffffffffffffffffffffffffffffffffffffffffffffffffffffffffffffffe0908116603f011681019082821181831017156116fe576116fe61166e565b8160405280935085815286868601111561171757600080fd5b858560208301376000602087830101525050509392505050565b600082601f83011261174257600080fd5b61121e8383356020850161169d565b6000806040838503121561176457600080fd5b82359150602083013567ffffffffffffffff81111561178257600080fd5b61178e85828601611731565b9150509250929050565b6000806000606084860312156117ad57600080fd5b6117b68461161b565b92506117c46020850161161b565b9150604084013590509250925092565b6000602082840312156117e657600080fd5b61121e8261161b565b6000806040838503121561180257600080fd5b61180b8361161b565b91506020830135801515811461182057600080fd5b809150509250929050565b6000806000806080858703121561184157600080fd5b61184a8561161b565b93506118586020860161161b565b925060408501359150606085013567ffffffffffffffff81111561187b57600080fd5b8501601f8101871361188c57600080fd5b61189b8782356020840161169d565b91505092959194509250565b6000806000606084860312156118bc57600080fd5b6118c58461161b565b925060208401359150604084013567ffffffffffffffff8111156118e857600080fd5b6118f486828701611731565b9150509250925092565b6000806040838503121561191157600080fd5b61191a8361161b565b91506119286020840161161b565b90509250929050565b600181811c9082168061194557607f821691505b60208210810361197e577f4e487b7100000000000000000000000000000000000000000000000000000000600052602260045260246000fd5b50919050565b7f4e487b7100000000000000000000000000000000000000000000000000000000600052601160045260246000fd5b600060001982036119c6576119c6611984565b5060010190565b73ffffffffffffffffffffffffffffffffffffffff84168152826020820152606060408201526000611a0260608301846115a5565b95945050505050565b600081611a1a57611a1a611984565b506000190190565b601f821115610524576000816000526020600020601f850160051c81016020861015611a4b5750805b601f850160051c820191505b81811015611a6a57828155600101611a57565b505050505050565b815167ffffffffffffffff811115611a8c57611a8c61166e565b611aa081611a9a8454611931565b84611a22565b602080601f831160018114611ad55760008415611abd5750858301515b600019600386901b1c1916600185901b178555611a6a565b6000858152602081207fffffffffffffffffffffffffffffffffffffffffffffffffffffffffffffffe08616915b82811015611b2257888601518255948401946001909101908401611b03565b5085821015611b405787850151600019600388901b60f8161c191681555b5050505050600190811b01905550565b600073ffffffffffffffffffffffffffffffffffffffff808716835280861660208401525083604083015260806060830152611b8f60808301846115a5565b9695505050505050565b600060208284031215611bab57600080fd5b815161121e81611533565b60008351611bc8818460208801611581565b835190830190611bdc818360208801611581565b0194935050505056fea2646970667358221220028f01bcb3a5d36030d4d02309228447fe475dbe48f5a2875ae14e82d45d62c764736f6c63430008180033",
  "linkReferences": {},
  "deployedLinkReferences": {}
}